8=FIX.4.2|9=0174|35=D|49=SSIC|56=BRDG|34=1997|52=20150527-09:50:06|11=SCJ000220150527|1=350123451|21=1|336=0|55=PNSN|48=40049J206|167=CS|54=2|38=205|40=2|44=33.22|59=0|47=A|7029=98Z|8927=0|8031=1|10=221|
8=FIX.4.2|9=0174|35=D|49=SSIC|56=BRDG|34=1998|52=20150527-09:50:06|11=SCJ000320150527|1=350123451|21=1|336=0|55=ADP|48=40049J206|167=CS|54=1|38=202|40=2|44=33.22|59=0|47=A|7029=98Z|8927=0|8031=1|10=221|
8=FIX.4.2|9=297|35=8|34=1999|50=KWA0057|57=RIPT|49=BPSSLR|76=TEST|56=BFSUS|52=20150527-09:50:06|128=TSTW|55=PNSN|37=20150527SCJ000220150527|11=SCJ000220150527|17=2003|20=0|54=2|40=2|59=0|38=205|14=15|32=15|151=900|6=33.2200|39=1|150=1|58=Partial Fill|60=20150527-09:50:06|75=20150407|31=33.2200|44=33.2200|10=162|
8=FIX.4.2|9=0174|35=D|49=SSIC|56=BRDG|34=2000|52=20150527-09:50:06|11=SCJ000420150527|1=350123451|21=1|336=0|55=GOOG|48=40049J206|167=CS|54=1|38=205|40=2|44=33.22|59=0|47=A|7029=98Z|8927=0|8031=1|10=221|
8=FIX.4.2|9=0174|35=D|49=SSIC|56=BRDG|34=2001|52=20150527-09:50:06|11=SCJ000520150527|1=350123451|21=1|336=0|55=PNSN|48=40049J206|167=CS|54=2|38=204|40=2|44=33.22|59=0|47=A|7029=98Z|8927=0|8031=1|10=221|
8=FIX.4.2|9=0174|35=D|49=SSIC|56=BRDG|34=2002|52=20150527-09:50:06|11=SCJ000620150527|1=350123451|21=1|336=0|55=APPL|48=40049J206|167=CS|54=1|38=209|40=2|44=33.22|59=0|47=A|7029=98Z|8927=0|8031=1|10=221|
8=FIX.4.2|9=0174|35=D|49=SSIC|56=BRDG|34=2003|52=20150527-09:50:06|11=SCJ000720150527|1=350123451|21=1|336=0|55=ADP|48=40049J206|167=CS|54=2|38=201|40=2|44=33.22|59=0|47=A|7029=98Z|8927=0|8031=1|10=221|
8=FIX.4.2|9=297|35=8|34=2004|50=KWA0057|57=RIPT|49=BPSSLR|76=TEST|56=BFSUS|52=20150527-09:50:06|128=TSTW|55=PNSN|37=20150527SCJ000220150527|11=SCJ000220150527|17=2002|20=0|54=2|40=2|59=0|38=205|14=32|32=17|151=900|6=33.2200|39=1|150=1|58=Partial Fill|60=20150527-09:50:06|75=20150407|31=33.2200|44=33.2200|10=162|
8=FIX.4.2|9=0174|35=D|49=SSIC|56=BRDG|34=2005|52=20150527-09:50:06|11=SCJ000820150527|1=350123451|21=1|336=0|55=IBM|48=40049J206|167=CS|54=1|38=208|40=2|44=33.22|59=0|47=A|7029=98Z|8927=0|8031=1|10=221|
8=FIX.4.2|9=0174|35=D|49=SSIC|56=BRDG|34=2006|52=20150527-09:50:06|11=SCJ000920150527|1=350123451|21=1|336=0|55=BR|48=40049J206|167=CS|54=1|38=206|40=2|44=33.22|59=0|47=A|7029=98Z|8927=0|8031=1|10=221|
8=FIX.4.2|9=0174|35=D|49=SSIC|56=BRDG|34=2007|52=20150527-09:50:06|11=SCJ001020150527|1=350123451|21=1|336=0|55=ADP|48=40049J206|167=CS|54=2|38=208|40=2|44=33.22|59=0|47=A|7029=98Z|8927=0|8031=1|10=221|
8=FIX.4.2|9=0174|35=D|49=SSIC|56=BRDG|34=2008|52=20150527-09:50:06|11=SCJ001120150527|1=350123451|21=1|336=0|55=PNSN|48=40049J206|167=CS|54=2|38=205|40=2|44=33.22|59=0|47=A|7029=98Z|8927=0|8031=1|10=221|
8=FIX.4.2|9=0174|35=D|49=SSIC|56=BRDG|34=2009|52=20150527-09:50:06|11=SCJ001220150527|1=350123451|21=1|336=0|55=GMAC|48=40049J206|167=CS|54=2|38=206|40=2|44=33.22|59=0|47=A|7029=98Z|8927=0|8031=1|10=221|
8=FIX.4.2|9=297|35=8|34=2010|50=KWA0057|57=RIPT|49=BPSSLR|76=TEST|56=BFSUS|52=20150527-09:50:06|128=TSTW|55=GOOG|37=20150527SCJ000420150527|11=SCJ000420150527|17=2017|20=0|54=1|40=2|59=0|38=205|14=1|32=1|151=900|6=33.2200|39=1|150=1|58=Partial Fill|60=20150527-09:50:06|75=20150407|31=33.2200|44=33.2200|10=162|
8=FIX.4.2|9=0174|35=D|49=SSIC|56=BRDG|34=2011|52=20150527-09:50:06|11=SCJ001320150527|1=350123451|21=1|336=0|55=IBM|48=40049J206|167=CS|54=1|38=203|40=2|44=33.22|59=0|47=A|7029=98Z|8927=0|8031=1|10=221|
8=FIX.4.2|9=297|35=8|34=2012|50=KWA0057|57=RIPT|49=BPSSLR|76=TEST|56=BFSUS|52=20150527-09:50:06|128=TSTW|55=GOOG|37=20150527SCJ000420150527|11=SCJ000420150527|17=2016|20=0|54=1|40=2|59=0|38=205|14=2|32=1|151=900|6=33.2200|39=1|150=1|58=Partial Fill|60=20150527-09:50:06|75=20150407|31=33.2200|44=33.2200|10=162|
8=FIX.4.2|9=0174|35=D|49=SSIC|56=BRDG|34=2013|52=20150527-09:50:06|11=SCJ001420150527|1=350123451|21=1|336=0|55=YHOO|48=40049J206|167=CS|54=1|38=200|40=2|44=33.22|59=0|47=A|7029=98Z|8927=0|8031=1|10=221|
8=FIX.4.2|9=297|35=8|34=2014|50=KWA0057|57=RIPT|49=BPSSLR|76=TEST|56=BFSUS|52=20150527-09:50:06|128=TSTW|55=ADP|37=20150527SCJ000320150527|11=SCJ000320150527|17=2008|20=0|54=1|40=2|59=0|38=202|14=52|32=52|151=900|6=33.2200|39=1|150=1|58=Partial Fill|60=20150527-09:50:06|75=20150407|31=33.2200|44=33.2200|10=162|
8=FIX.4.2|9=297|35=8|34=2015|50=KWA0057|57=RIPT|49=BPSSLR|76=TEST|56=BFSUS|52=20150527-09:50:06|128=TSTW|55=GOOG|37=20150527SCJ000420150527|11=SCJ000420150527|17=2015|20=0|54=1|40=2|59=0|38=205|14=7|32=5|151=900|6=33.2200|39=1|150=1|58=Partial Fill|60=20150527-09:50:06|75=20150407|31=33.2200|44=33.2200|10=162|
8=FIX.4.2|9=0174|35=D|49=SSIC|56=BRDG|34=2016|52=20150527-09:50:06|11=SCJ001520150527|1=350123451|21=1|336=0|55=YHOO|48=40049J206|167=CS|54=2|38=203|40=2|44=33.22|59=0|47=A|7029=98Z|8927=0|8031=1|10=221|
8=FIX.4.2|9=0174|35=D|49=SSIC|56=BRDG|34=2017|52=20150527-09:50:06|11=SCJ001620150527|1=350123451|21=1|336=0|55=BR|48=40049J206|167=CS|54=2|38=203|40=2|44=33.22|59=0|47=A|7029=98Z|8927=0|8031=1|10=221|
8=FIX.4.2|9=0174|35=D|49=SSIC|56=BRDG|34=2018|52=20150527-09:50:06|11=SCJ001720150527|1=350123451|21=1|336=0|55=GE|48=40049J206|167=CS|54=2|38=209|40=2|44=33.22|59=0|47=A|7029=98Z|8927=0|8031=1|10=221|
8=FIX.4.2|9=0174|35=D|49=SSIC|56=BRDG|34=2019|52=20150527-09:50:06|11=SCJ001820150527|1=350123451|21=1|336=0|55=PNSN|48=40049J206|167=CS|54=2|38=207|40=2|44=33.22|59=0|47=A|7029=98Z|8927=0|8031=1|10=221|
8=FIX.4.2|9=297|35=8|34=2020|50=KWA0057|57=RIPT|49=BPSSLR|76=TEST|56=BFSUS|52=20150527-09:50:06|128=TSTW|55=ADP|37=20150527SCJ000720150527|11=SCJ000720150527|17=2027|20=0|54=2|40=2|59=0|38=201|14=6|32=6|151=900|6=33.2200|39=1|150=1|58=Partial Fill|60=20150527-09:50:06|75=20150407|31=33.2200|44=33.2200|10=162|
8=FIX.4.2|9=0174|35=D|49=SSIC|56=BRDG|34=2021|52=20150527-09:50:06|11=SCJ001920150527|1=350123451|21=1|336=0|55=GE|48=40049J206|167=CS|54=1|38=202|40=2|44=33.22|59=0|47=A|7029=98Z|8927=0|8031=1|10=221|
8=FIX.4.2|9=0174|35=D|49=SSIC|56=BRDG|34=2022|52=20150527-09:50:06|11=SCJ002020150527|1=350123451|21=1|336=0|55=BR|48=40049J206|167=CS|54=1|38=201|40=2|44=33.22|59=0|47=A|7029=98Z|8927=0|8031=1|10=221|
8=FIX.4.2|9=297|35=8|34=2023|50=KWA0057|57=RIPT|49=BPSSLR|76=TEST|56=BFSUS|52=20150527-09:50:06|128=TSTW|55=IBM|37=20150527SCJ000820150527|11=SCJ000820150527|17=2033|20=0|54=1|40=2|59=0|38=208|14=10|32=10|151=900|6=33.2200|39=1|150=1|58=Partial Fill|60=20150527-09:50:06|75=20150407|31=33.2200|44=33.2200|10=162|
8=FIX.4.2|9=0174|35=D|49=SSIC|56=BRDG|34=2024|52=20150527-09:50:06|11=SCJ002120150527|1=350123451|21=1|336=0|55=BR|48=40049J206|167=CS|54=2|38=201|40=2|44=33.22|59=0|47=A|7029=98Z|8927=0|8031=1|10=221|
8=FIX.4.2|9=0174|35=D|49=SSIC|56=BRDG|34=2025|52=20150527-09:50:07|11=SCJ002220150527|1=350123451|21=1|336=0|55=BR|48=40049J206|167=CS|54=1|38=206|40=2|44=33.22|59=0|47=A|7029=98Z|8927=0|8031=1|10=221|
8=FIX.4.2|9=297|35=8|34=2026|50=KWA0057|57=RIPT|49=BPSSLR|76=TEST|56=BFSUS|52=20150527-09:50:06|128=TSTW|55=PNSN|37=20150527SCJ000220150527|11=SCJ000220150527|17=2007|20=0|54=2|40=2|59=0|38=205|14=38|32=6|151=900|6=33.2200|39=1|150=1|58=Partial Fill|60=20150527-09:50:07|75=20150407|31=33.2200|44=33.2200|10=162|
8=FIX.4.2|9=0174|35=D|49=SSIC|56=BRDG|34=2027|52=20150527-09:50:07|11=SCJ002320150527|1=350123451|21=1|336=0|55=BR|48=40049J206|167=CS|54=1|38=206|40=2|44=33.22|59=0|47=A|7029=98Z|8927=0|8031=1|10=221|
8=FIX.4.2|9=0174|35=D|49=SSIC|56=BRDG|34=2028|52=20150527-09:50:07|11=SCJ002420150527|1=350123451|21=1|336=0|55=PNSN|48=40049J206|167=CS|54=2|38=202|40=2|44=33.22|59=0|47=A|7029=98Z|8927=0|8031=1|10=221|
8=FIX.4.2|9=297|35=8|34=2029|50=KWA0057|57=RIPT|49=BPSSLR|76=TEST|56=BFSUS|52=20150527-09:50:06|128=TSTW|55=IBM|37=20150527SCJ000820150527|11=SCJ000820150527|17=2035|20=0|54=1|40=2|59=0|38=208|14=11|32=1|151=900|6=33.2200|39=1|150=1|58=Partial Fill|60=20150527-09:50:07|75=20150407|31=33.2200|44=33.2200|10=162|
8=FIX.4.2|9=0174|35=D|49=SSIC|56=BRDG|34=2031|52=20150527-09:50:07|11=SCJ002520150527|1=350123451|21=1|336=0|55=GMAC|48=40049J206|167=CS|54=2|38=200|40=2|44=33.22|59=0|47=A|7029=98Z|8927=0|8031=1|10=221|
8=FIX.4.2|9=297|35=8|34=2030|50=KWA0057|57=RIPT|49=BPSSLR|76=TEST|56=BFSUS|52=20150527-09:50:06|128=TSTW|55=PNSN|37=20150527SCJ001120150527|11=SCJ001120150527|17=2054|20=0|54=2|40=2|59=0|38=205|14=50|32=50|151=900|6=33.2200|39=1|150=1|58=Partial Fill|60=20150527-09:50:07|75=20150407|31=33.2200|44=33.2200|10=162|
8=FIX.4.2|9=0174|35=D|49=SSIC|56=BRDG|34=2033|52=20150527-09:50:07|11=SCJ002620150527|1=350123451|21=1|336=0|55=BR|48=40049J206|167=CS|54=2|38=202|40=2|44=33.22|59=0|47=A|7029=98Z|8927=0|8031=1|10=221|
8=FIX.4.2|9=297|35=8|34=2032|50=KWA0057|57=RIPT|49=BPSSLR|76=TEST|56=BFSUS|52=20150527-09:50:06|128=TSTW|55=GMAC|37=20150527SCJ001220150527|11=SCJ001220150527|17=2065|20=0|54=2|40=2|59=0|38=206|14=3|32=3|151=900|6=33.2200|39=1|150=1|58=Partial Fill|60=20150527-09:50:07|75=20150407|31=33.2200|44=33.2200|10=162|
8=FIX.4.2|9=0174|35=D|49=SSIC|56=BRDG|34=2034|52=20150527-09:50:07|11=SCJ002720150527|1=350123451|21=1|336=0|55=PNSN|48=40049J206|167=CS|54=1|38=202|40=2|44=33.22|59=0|47=A|7029=98Z|8927=0|8031=1|10=221|
8=FIX.4.2|9=0174|35=D|49=SSIC|56=BRDG|34=2035|52=20150527-09:50:07|11=SCJ002820150527|1=350123451|21=1|336=0|55=BR|48=40049J206|167=CS|54=2|38=209|40=2|44=33.22|59=0|47=A|7029=98Z|8927=0|8031=1|10=221|
8=FIX.4.2|9=0174|35=D|49=SSIC|56=BRDG|34=2036|52=20150527-09:50:07|11=SCJ002920150527|1=350123451|21=1|336=0|55=PNSN|48=40049J206|167=CS|54=2|38=201|40=2|44=33.22|59=0|47=A|7029=98Z|8927=0|8031=1|10=221|
8=FIX.4.2|9=297|35=8|34=2037|50=KWA0057|57=RIPT|49=BPSSLR|76=TEST|56=BFSUS|52=20150527-09:50:06|128=TSTW|55=YHOO|37=20150527SCJ001420150527|11=SCJ001420150527|17=2072|20=0|54=1|40=2|59=0|38=200|14=78|32=78|151=900|6=33.2200|39=1|150=1|58=Partial Fill|60=20150527-09:50:07|75=20150407|31=33.2200|44=33.2200|10=162|
8=FIX.4.2|9=0174|35=D|49=SSIC|56=BRDG|34=2039|52=20150527-09:50:07|11=SCJ003020150527|1=350123451|21=1|336=0|55=IBM|48=40049J206|167=CS|54=2|38=208|40=2|44=33.22|59=0|47=A|7029=98Z|8927=0|8031=1|10=221|
8=FIX.4.2|9=297|35=8|34=2038|50=KWA0057|57=RIPT|49=BPSSLR|76=TEST|56=BFSUS|52=20150527-09:50:06|128=TSTW|55=IBM|37=20150527SCJ001320150527|11=SCJ001320150527|17=2066|20=0|54=1|40=2|59=0|38=203|14=183|32=183|151=900|6=33.2200|39=1|150=1|58=Partial Fill|60=20150527-09:50:07|75=20150407|31=33.2200|44=33.2200|10=162|
8=FIX.4.2|9=0174|35=D|49=SSIC|56=BRDG|34=2040|52=20150527-09:50:07|11=SCJ003120150527|1=350123451|21=1|336=0|55=IBM|48=40049J206|167=CS|54=1|38=200|40=2|44=33.22|59=0|47=A|7029=98Z|8927=0|8031=1|10=221|
8=FIX.4.2|9=0174|35=D|49=SSIC|56=BRDG|34=2041|52=20150527-09:50:07|11=SCJ003220150527|1=350123451|21=1|336=0|55=BR|48=40049J206|167=CS|54=1|38=201|40=2|44=33.22|59=0|47=A|7029=98Z|8927=0|8031=1|10=221|
8=FIX.4.2|9=0174|35=D|49=SSIC|56=BRDG|34=2042|52=20150527-09:50:07|11=SCJ003320150527|1=350123451|21=1|336=0|55=GMAC|48=40049J206|167=CS|54=1|38=205|40=2|44=33.22|59=0|47=A|7029=98Z|8927=0|8031=1|10=221|
8=FIX.4.2|9=297|35=8|34=2043|50=KWA0057|57=RIPT|49=BPSSLR|76=TEST|56=BFSUS|52=20150527-09:50:06|128=TSTW|55=PNSN|37=20150527SCJ000520150527|11=SCJ000520150527|17=2019|20=0|54=2|40=2|59=0|38=204|14=204|32=204|151=900|6=33.2200|39=3|150=1|58=Partial Fill|60=20150527-09:50:07|75=20150407|31=33.2200|44=33.2200|10=162|
8=FIX.4.2|9=0174|35=D|49=SSIC|56=BRDG|34=2045|52=20150527-09:50:07|11=SCJ003420150527|1=350123451|21=1|336=0|55=IBM|48=40049J206|167=CS|54=2|38=206|40=2|44=33.22|59=0|47=A|7029=98Z|8927=0|8031=1|10=221|
8=FIX.4.2|9=297|35=8|34=2044|50=KWA0057|57=RIPT|49=BPSSLR|76=TEST|56=BFSUS|52=20150527-09:50:06|128=TSTW|55=BR|37=20150527SCJ001620150527|11=SCJ001620150527|17=2082|20=0|54=2|40=2|59=0|38=203|14=8|32=8|151=900|6=33.2200|39=1|150=1|58=Partial Fill|60=20150527-09:50:07|75=20150407|31=33.2200|44=33.2200|10=162|
8=FIX.4.2|9=0174|35=D|49=SSIC|56=BRDG|34=2046|52=20150527-09:50:07|11=SCJ003520150527|1=350123451|21=1|336=0|55=YHOO|48=40049J206|167=CS|54=1|38=200|40=2|44=33.22|59=0|47=A|7029=98Z|8927=0|8031=1|10=221|
8=FIX.4.2|9=0174|35=D|49=SSIC|56=BRDG|34=2047|52=20150527-09:50:07|11=SCJ003620150527|1=350123451|21=1|336=0|55=PNSN|48=40049J206|167=CS|54=1|38=208|40=2|44=33.22|59=0|47=A|7029=98Z|8927=0|8031=1|10=221|
8=FIX.4.2|9=297|35=8|34=2048|50=KWA0057|57=RIPT|49=BPSSLR|76=TEST|56=BFSUS|52=20150527-09:50:06|128=TSTW|55=BR|37=20150527SCJ001620150527|11=SCJ001620150527|17=2085|20=0|54=2|40=2|59=0|38=203|14=9|32=1|151=900|6=33.2200|39=1|150=1|58=Partial Fill|60=20150527-09:50:07|75=20150407|31=33.2200|44=33.2200|10=162|
8=FIX.4.2|9=0174|35=D|49=SSIC|56=BRDG|34=2049|52=20150527-09:50:07|11=SCJ003720150527|1=350123451|21=1|336=0|55=ADP|48=40049J206|167=CS|54=2|38=203|40=2|44=33.22|59=0|47=A|7029=98Z|8927=0|8031=1|10=221|
8=FIX.4.2|9=297|35=8|34=2050|50=KWA0057|57=RIPT|49=BPSSLR|76=TEST|56=BFSUS|52=20150527-09:50:06|128=TSTW|55=GE|37=20150527SCJ001720150527|11=SCJ001720150527|17=2094|20=0|54=2|40=2|59=0|38=209|14=12|32=12|151=900|6=33.2200|39=1|150=1|58=Partial Fill|60=20150527-09:50:07|75=20150407|31=33.2200|44=33.2200|10=162|
8=FIX.4.2|9=0174|35=D|49=SSIC|56=BRDG|34=2051|52=20150527-09:50:07|11=SCJ003820150527|1=350123451|21=1|336=0|55=APPL|48=40049J206|167=CS|54=1|38=204|40=2|44=33.22|59=0|47=A|7029=98Z|8927=0|8031=1|10=221|
8=FIX.4.2|9=0174|35=D|49=SSIC|56=BRDG|34=2052|52=20150527-09:50:08|11=SCJ003920150527|1=350123451|21=1|336=0|55=GE|48=40049J206|167=CS|54=2|38=201|40=2|44=33.22|59=0|47=A|7029=98Z|8927=0|8031=1|10=221|
8=FIX.4.2|9=297|35=8|34=2053|50=KWA0057|57=RIPT|49=BPSSLR|76=TEST|56=BFSUS|52=20150527-09:50:06|128=TSTW|55=IBM|37=20150527SCJ000820150527|11=SCJ000820150527|17=2037|20=0|54=1|40=2|59=0|38=208|14=14|32=3|151=900|6=33.2200|39=1|150=1|58=Partial Fill|60=20150527-09:50:08|75=20150407|31=33.2200|44=33.2200|10=162|
8=FIX.4.2|9=0174|35=D|49=SSIC|56=BRDG|34=2054|52=20150527-09:50:08|11=SCJ004020150527|1=350123451|21=1|336=0|55=PNSN|48=40049J206|167=CS|54=1|38=202|40=2|44=33.22|59=0|47=A|7029=98Z|8927=0|8031=1|10=221|
8=FIX.4.2|9=0174|35=D|49=SSIC|56=BRDG|34=2055|52=20150527-09:50:08|11=SCJ004120150527|1=350123451|21=1|336=0|55=GOOG|48=40049J206|167=CS|54=1|38=205|40=2|44=33.22|59=0|47=A|7029=98Z|8927=0|8031=1|10=221|
8=FIX.4.2|9=0174|35=D|49=SSIC|56=BRDG|34=2056|52=20150527-09:50:08|11=SCJ004220150527|1=350123451|21=1|336=0|55=APPL|48=40049J206|167=CS|54=1|38=205|40=2|44=33.22|59=0|47=A|7029=98Z|8927=0|8031=1|10=221|
8=FIX.4.2|9=0174|35=D|49=SSIC|56=BRDG|34=2057|52=20150527-09:50:08|11=SCJ004320150527|1=350123451|21=1|336=0|55=YHOO|48=40049J206|167=CS|54=1|38=200|40=2|44=33.22|59=0|47=A|7029=98Z|8927=0|8031=1|10=221|
8=FIX.4.2|9=0174|35=D|49=SSIC|56=BRDG|34=2058|52=20150527-09:50:08|11=SCJ004420150527|1=350123451|21=1|336=0|55=PNSN|48=40049J206|167=CS|54=1|38=200|40=2|44=33.22|59=0|47=A|7029=98Z|8927=0|8031=1|10=221|
8=FIX.4.2|9=297|35=8|34=2059|50=KWA0057|57=RIPT|49=BPSSLR|76=TEST|56=BFSUS|52=20150527-09:50:06|128=TSTW|55=YHOO|37=20150527SCJ001420150527|11=SCJ001420150527|17=2074|20=0|54=1|40=2|59=0|38=200|14=79|32=1|151=900|6=33.2200|39=1|150=1|58=Partial Fill|60=20150527-09:50:08|75=20150407|31=33.2200|44=33.2200|10=162|
8=FIX.4.2|9=0174|35=D|49=SSIC|56=BRDG|34=2060|52=20150527-09:50:08|11=SCJ004520150527|1=350123451|21=1|336=0|55=YHOO|48=40049J206|167=CS|54=1|38=207|40=2|44=33.22|59=0|47=A|7029=98Z|8927=0|8031=1|10=221|
8=FIX.4.2|9=0174|35=D|49=SSIC|56=BRDG|34=2061|52=20150527-09:50:08|11=SCJ004620150527|1=350123451|21=1|336=0|55=APPL|48=40049J206|167=CS|54=2|38=205|40=2|44=33.22|59=0|47=A|7029=98Z|8927=0|8031=1|10=221|
8=FIX.4.2|9=0174|35=D|49=SSIC|56=BRDG|34=2062|52=20150527-09:50:08|11=SCJ004720150527|1=350123451|21=1|336=0|55=PNSN|48=40049J206|167=CS|54=2|38=203|40=2|44=33.22|59=0|47=A|7029=98Z|8927=0|8031=1|10=221|
8=FIX.4.2|9=297|35=8|34=2063|50=KWA0057|57=RIPT|49=BPSSLR|76=TEST|56=BFSUS|52=20150527-09:50:06|128=TSTW|55=GE|37=20150527SCJ001720150527|11=SCJ001720150527|17=2095|20=0|54=2|40=2|59=0|38=209|14=13|32=1|151=900|6=33.2200|39=1|150=1|58=Partial Fill|60=20150527-09:50:08|75=20150407|31=33.2200|44=33.2200|10=162|
8=FIX.4.2|9=0174|35=D|49=SSIC|56=BRDG|34=2064|52=20150527-09:50:08|11=SCJ004820150527|1=350123451|21=1|336=0|55=ADP|48=40049J206|167=CS|54=2|38=205|40=2|44=33.22|59=0|47=A|7029=98Z|8927=0|8031=1|10=221|
8=FIX.4.2|9=0174|35=D|49=SSIC|56=BRDG|34=2065|52=20150527-09:50:08|11=SCJ004920150527|1=350123451|21=1|336=0|55=BR|48=40049J206|167=CS|54=2|38=207|40=2|44=33.22|59=0|47=A|7029=98Z|8927=0|8031=1|10=221|
8=FIX.4.2|9=0174|35=D|49=SSIC|56=BRDG|34=2066|52=20150527-09:50:08|11=SCJ005020150527|1=350123451|21=1|336=0|55=BR|48=40049J206|167=CS|54=1|38=204|40=2|44=33.22|59=0|47=A|7029=98Z|8927=0|8031=1|10=221|
8=FIX.4.2|9=297|35=8|34=2067|50=KWA0057|57=RIPT|49=BPSSLR|76=TEST|56=BFSUS|52=20150527-09:50:06|128=TSTW|55=BR|37=20150527SCJ001620150527|11=SCJ001620150527|17=2084|20=0|54=2|40=2|59=0|38=203|14=12|32=3|151=900|6=33.2200|39=1|150=1|58=Partial Fill|60=20150527-09:50:08|75=20150407|31=33.2200|44=33.2200|10=162|
8=FIX.4.2|9=0174|35=D|49=SSIC|56=BRDG|34=2068|52=20150527-09:50:08|11=SCJ005120150527|1=350123451|21=1|336=0|55=BR|48=40049J206|167=CS|54=2|38=208|40=2|44=33.22|59=0|47=A|7029=98Z|8927=0|8031=1|10=221|
8=FIX.4.2|9=297|35=8|34=2069|50=KWA0057|57=RIPT|49=BPSSLR|76=TEST|56=BFSUS|52=20150527-09:50:06|128=TSTW|55=GE|37=20150527SCJ001720150527|11=SCJ001720150527|17=2092|20=0|54=2|40=2|59=0|38=209|14=32|32=19|151=900|6=33.2200|39=1|150=1|58=Partial Fill|60=20150527-09:50:08|75=20150407|31=33.2200|44=33.2200|10=162|
8=FIX.4.2|9=0174|35=D|49=SSIC|56=BRDG|34=2070|52=20150527-09:50:08|11=SCJ005220150527|1=350123451|21=1|336=0|55=YHOO|48=40049J206|167=CS|54=1|38=207|40=2|44=33.22|59=0|47=A|7029=98Z|8927=0|8031=1|10=221|
8=FIX.4.2|9=297|35=8|34=2071|50=KWA0057|57=RIPT|49=BPSSLR|76=TEST|56=BFSUS|52=20150527-09:50:06|128=TSTW|55=IBM|37=20150527SCJ001320150527|11=SCJ001320150527|17=2068|20=0|54=1|40=2|59=0|38=203|14=188|32=5|151=900|6=33.2200|39=1|150=1|58=Partial Fill|60=20150527-09:50:08|75=20150407|31=33.2200|44=33.2200|10=162|
8=FIX.4.2|9=0174|35=D|49=SSIC|56=BRDG|34=2072|52=20150527-09:50:08|11=SCJ005320150527|1=350123451|21=1|336=0|55=ADP|48=40049J206|167=CS|54=1|38=203|40=2|44=33.22|59=0|47=A|7029=98Z|8927=0|8031=1|10=221|
8=FIX.4.2|9=0174|35=D|49=SSIC|56=BRDG|34=2073|52=20150527-09:50:08|11=SCJ005420150527|1=350123451|21=1|336=0|55=YHOO|48=40049J206|167=CS|54=2|38=204|40=2|44=33.22|59=0|47=A|7029=98Z|8927=0|8031=1|10=221|
8=FIX.4.2|9=0174|35=D|49=SSIC|56=BRDG|34=2074|52=20150527-09:50:08|11=SCJ005520150527|1=350123451|21=1|336=0|55=PNSN|48=40049J206|167=CS|54=1|38=207|40=2|44=33.22|59=0|47=A|7029=98Z|8927=0|8031=1|10=221|
8=FIX.4.2|9=297|35=8|34=2075|50=KWA0057|57=RIPT|49=BPSSLR|76=TEST|56=BFSUS|52=20150527-09:50:06|128=TSTW|55=ADP|37=20150527SCJ000320150527|11=SCJ000320150527|17=2010|20=0|54=1|40=2|59=0|38=202|14=67|32=15|151=900|6=33.2200|39=1|150=1|58=Partial Fill|60=20150527-09:50:08|75=20150407|31=33.2200|44=33.2200|10=162|
8=FIX.4.2|9=0174|35=D|49=SSIC|56=BRDG|34=2076|52=20150527-09:50:08|11=SCJ005620150527|1=350123451|21=1|336=0|55=BR|48=40049J206|167=CS|54=1|38=207|40=2|44=33.22|59=0|47=A|7029=98Z|8927=0|8031=1|10=221|
8=FIX.4.2|9=0174|35=D|49=SSIC|56=BRDG|34=2077|52=20150527-09:50:08|11=SCJ005720150527|1=350123451|21=1|336=0|55=GOOG|48=40049J206|167=CS|54=2|38=202|40=2|44=33.22|59=0|47=A|7029=98Z|8927=0|8031=1|10=221|
8=FIX.4.2|9=0174|35=D|49=SSIC|56=BRDG|34=2078|52=20150527-09:50:08|11=SCJ005820150527|1=350123451|21=1|336=0|55=BR|48=40049J206|167=CS|54=1|38=209|40=2|44=33.22|59=0|47=A|7029=98Z|8927=0|8031=1|10=221|
8=FIX.4.2|9=0174|35=D|49=SSIC|56=BRDG|34=2079|52=20150527-09:50:08|11=SCJ005920150527|1=350123451|21=1|336=0|55=YHOO|48=40049J206|167=CS|54=2|38=206|40=2|44=33.22|59=0|47=A|7029=98Z|8927=0|8031=1|10=221|
8=FIX.4.2|9=0174|35=D|49=SSIC|56=BRDG|34=2080|52=20150527-09:50:08|11=SCJ006020150527|1=350123451|21=1|336=0|55=ADP|48=40049J206|167=CS|54=2|38=209|40=2|44=33.22|59=0|47=A|7029=98Z|8927=0|8031=1|10=221|
8=FIX.4.2|9=0174|35=D|49=SSIC|56=BRDG|34=2081|52=20150527-09:50:09|11=SCJ006120150527|1=350123451|21=1|336=0|55=GMAC|48=40049J206|167=CS|54=2|38=201|40=2|44=33.22|59=0|47=A|7029=98Z|8927=0|8031=1|10=221|
8=FIX.4.2|9=297|35=8|34=2082|50=KWA0057|57=RIPT|49=BPSSLR|76=TEST|56=BFSUS|52=20150527-09:50:06|128=TSTW|55=BR|37=20150527SCJ001620150527|11=SCJ001620150527|17=2081|20=0|54=2|40=2|59=0|38=203|14=14|32=2|151=900|6=33.2200|39=1|150=1|58=Partial Fill|60=20150527-09:50:09|75=20150407|31=33.2200|44=33.2200|10=162|
8=FIX.4.2|9=297|35=8|34=2083|50=KWA0057|57=RIPT|49=BPSSLR|76=TEST|56=BFSUS|52=20150527-09:50:07|128=TSTW|55=BR|37=20150527SCJ002220150527|11=SCJ002220150527|17=2122|20=0|54=1|40=2|59=0|38=206|14=2|32=2|151=900|6=33.2200|39=1|150=1|58=Partial Fill|60=20150527-09:50:09|75=20150407|31=33.2200|44=33.2200|10=162|
8=FIX.4.2|9=0174|35=D|49=SSIC|56=BRDG|34=2084|52=20150527-09:50:09|11=SCJ006220150527|1=350123451|21=1|336=0|55=GMAC|48=40049J206|167=CS|54=1|38=209|40=2|44=33.22|59=0|47=A|7029=98Z|8927=0|8031=1|10=221|
8=FIX.4.2|9=0174|35=D|49=SSIC|56=BRDG|34=2085|52=20150527-09:50:09|11=SCJ006320150527|1=350123451|21=1|336=0|55=APPL|48=40049J206|167=CS|54=2|38=203|40=2|44=33.22|59=0|47=A|7029=98Z|8927=0|8031=1|10=221|
8=FIX.4.2|9=0174|35=D|49=SSIC|56=BRDG|34=2086|52=20150527-09:50:09|11=SCJ006420150527|1=350123451|21=1|336=0|55=BR|48=40049J206|167=CS|54=1|38=206|40=2|44=33.22|59=0|47=A|7029=98Z|8927=0|8031=1|10=221|
8=FIX.4.2|9=297|35=8|34=2087|50=KWA0057|57=RIPT|49=BPSSLR|76=TEST|56=BFSUS|52=20150527-09:50:06|128=TSTW|55=BR|37=20150527SCJ000920150527|11=SCJ000920150527|17=2041|20=0|54=1|40=2|59=0|38=206|14=173|32=173|151=900|6=33.2200|39=1|150=1|58=Partial Fill|60=20150527-09:50:09|75=20150407|31=33.2200|44=33.2200|10=162|
8=FIX.4.2|9=0174|35=D|49=SSIC|56=BRDG|34=2088|52=20150527-09:50:09|11=SCJ006520150527|1=350123451|21=1|336=0|55=GMAC|48=40049J206|167=CS|54=1|38=208|40=2|44=33.22|59=0|47=A|7029=98Z|8927=0|8031=1|10=221|
8=FIX.4.2|9=0174|35=D|49=SSIC|56=BRDG|34=2089|52=20150527-09:50:09|11=SCJ006620150527|1=350123451|21=1|336=0|55=ADP|48=40049J206|167=CS|54=2|38=204|40=2|44=33.22|59=0|47=A|7029=98Z|8927=0|8031=1|10=221|
8=FIX.4.2|9=297|35=8|34=2090|50=KWA0057|57=RIPT|49=BPSSLR|76=TEST|56=BFSUS|52=20150527-09:50:06|128=TSTW|55=IBM|37=20150527SCJ001320150527|11=SCJ001320150527|17=2067|20=0|54=1|40=2|59=0|38=203|14=203|32=15|151=900|6=33.2200|39=3|150=1|58=Partial Fill|60=20150527-09:50:09|75=20150407|31=33.2200|44=33.2200|10=162|
8=FIX.4.2|9=0174|35=D|49=SSIC|56=BRDG|34=2091|52=20150527-09:50:09|11=SCJ006720150527|1=350123451|21=1|336=0|55=ADP|48=40049J206|167=CS|54=1|38=209|40=2|44=33.22|59=0|47=A|7029=98Z|8927=0|8031=1|10=221|
8=FIX.4.2|9=0174|35=D|49=SSIC|56=BRDG|34=2092|52=20150527-09:50:09|11=SCJ006820150527|1=350123451|21=1|336=0|55=YHOO|48=40049J206|167=CS|54=1|38=201|40=2|44=33.22|59=0|47=A|7029=98Z|8927=0|8031=1|10=221|
8=FIX.4.2|9=297|35=8|34=2093|50=KWA0057|57=RIPT|49=BPSSLR|76=TEST|56=BFSUS|52=20150527-09:50:06|128=TSTW|55=BR|37=20150527SCJ001620150527|11=SCJ001620150527|17=2083|20=0|54=2|40=2|59=0|38=203|14=17|32=3|151=900|6=33.2200|39=1|150=1|58=Partial Fill|60=20150527-09:50:09|75=20150407|31=33.2200|44=33.2200|10=162|
8=FIX.4.2|9=0174|35=D|49=SSIC|56=BRDG|34=2094|52=20150527-09:50:09|11=SCJ006920150527|1=350123451|21=1|336=0|55=YHOO|48=40049J206|167=CS|54=2|38=207|40=2|44=33.22|59=0|47=A|7029=98Z|8927=0|8031=1|10=221|
8=FIX.4.2|9=0174|35=D|49=SSIC|56=BRDG|34=2095|52=20150527-09:50:09|11=SCJ007020150527|1=350123451|21=1|336=0|55=ADP|48=40049J206|167=CS|54=1|38=206|40=2|44=33.22|59=0|47=A|7029=98Z|8927=0|8031=1|10=221|
8=FIX.4.2|9=0174|35=D|49=SSIC|56=BRDG|34=2096|52=20150527-09:50:09|11=SCJ007120150527|1=350123451|21=1|336=0|55=IBM|48=40049J206|167=CS|54=1|38=205|40=2|44=33.22|59=0|47=A|7029=98Z|8927=0|8031=1|10=221|
8=FIX.4.2|9=297|35=8|34=2097|50=KWA0057|57=RIPT|49=BPSSLR|76=TEST|56=BFSUS|52=20150527-09:50:06|128=TSTW|55=IBM|37=20150527SCJ000820150527|11=SCJ000820150527|17=2036|20=0|54=1|40=2|59=0|38=208|14=16|32=2|151=900|6=33.2200|39=1|150=1|58=Partial Fill|60=20150527-09:50:09|75=20150407|31=33.2200|44=33.2200|10=162|
8=FIX.4.2|9=0174|35=D|49=SSIC|56=BRDG|34=2099|52=20150527-09:50:09|11=SCJ007220150527|1=350123451|21=1|336=0|55=ADP|48=40049J206|167=CS|54=2|38=202|40=2|44=33.22|59=0|47=A|7029=98Z|8927=0|8031=1|10=221|
8=FIX.4.2|9=297|35=8|34=2098|50=KWA0057|57=RIPT|49=BPSSLR|76=TEST|56=BFSUS|52=20150527-09:50:06|128=TSTW|55=ADP|37=20150527SCJ000320150527|11=SCJ000320150527|17=2011|20=0|54=1|40=2|59=0|38=202|14=85|32=18|151=900|6=33.2200|39=1|150=1|58=Partial Fill|60=20150527-09:50:09|75=20150407|31=33.2200|44=33.2200|10=162|
8=FIX.4.2|9=0174|35=D|49=SSIC|56=BRDG|34=2100|52=20150527-09:50:09|11=SCJ007320150527|1=350123451|21=1|336=0|55=IBM|48=40049J206|167=CS|54=1|38=200|40=2|44=33.22|59=0|47=A|7029=98Z|8927=0|8031=1|10=221|
8=FIX.4.2|9=297|35=8|34=2101|50=KWA0057|57=RIPT|49=BPSSLR|76=TEST|56=BFSUS|52=20150527-09:50:07|128=TSTW|55=PNSN|37=20150527SCJ002420150527|11=SCJ002420150527|17=2133|20=0|54=2|40=2|59=0|38=202|14=6|32=6|151=900|6=33.2200|39=1|150=1|58=Partial Fill|60=20150527-09:50:09|75=20150407|31=33.2200|44=33.2200|10=162|
8=FIX.4.2|9=0174|35=D|49=SSIC|56=BRDG|34=2102|52=20150527-09:50:09|11=SCJ007420150527|1=350123451|21=1|336=0|55=IBM|48=40049J206|167=CS|54=2|38=205|40=2|44=33.22|59=0|47=A|7029=98Z|8927=0|8031=1|10=221|
8=FIX.4.2|9=0174|35=D|49=SSIC|56=BRDG|34=2103|52=20150527-09:50:09|11=SCJ007520150527|1=350123451|21=1|336=0|55=APPL|48=40049J206|167=CS|54=2|38=203|40=2|44=33.22|59=0|47=A|7029=98Z|8927=0|8031=1|10=221|
8=FIX.4.2|9=297|35=8|34=2104|50=KWA0057|57=RIPT|49=BPSSLR|76=TEST|56=BFSUS|52=20150527-09:50:06|128=TSTW|55=BR|37=20150527SCJ001620150527|11=SCJ001620150527|17=2086|20=0|54=2|40=2|59=0|38=203|14=20|32=3|151=900|6=33.2200|39=1|150=1|58=Partial Fill|60=20150527-09:50:09|75=20150407|31=33.2200|44=33.2200|10=162|
8=FIX.4.2|9=0174|35=D|49=SSIC|56=BRDG|34=2105|52=20150527-09:50:09|11=SCJ007620150527|1=350123451|21=1|336=0|55=GOOG|48=40049J206|167=CS|54=2|38=201|40=2|44=33.22|59=0|47=A|7029=98Z|8927=0|8031=1|10=221|
8=FIX.4.2|9=297|35=8|34=2106|50=KWA0057|57=RIPT|49=BPSSLR|76=TEST|56=BFSUS|52=20150527-09:50:07|128=TSTW|55=GMAC|37=20150527SCJ002520150527|11=SCJ002520150527|17=2137|20=0|54=2|40=2|59=0|38=200|14=36|32=36|151=900|6=33.2200|39=1|150=1|58=Partial Fill|60=20150527-09:50:09|75=20150407|31=33.2200|44=33.2200|10=162|
8=FIX.4.2|9=0174|35=D|49=SSIC|56=BRDG|34=2107|52=20150527-09:50:09|11=SCJ007720150527|1=350123451|21=1|336=0|55=IBM|48=40049J206|167=CS|54=2|38=205|40=2|44=33.22|59=0|47=A|7029=98Z|8927=0|8031=1|10=221|
8=FIX.4.2|9=0174|35=D|49=SSIC|56=BRDG|34=2108|52=20150527-09:50:09|11=SCJ007820150527|1=350123451|21=1|336=0|55=ADP|48=40049J206|167=CS|54=1|38=209|40=2|44=33.22|59=0|47=A|7029=98Z|8927=0|8031=1|10=221|
8=FIX.4.2|9=297|35=8|34=2109|50=KWA0057|57=RIPT|49=BPSSLR|76=TEST|56=BFSUS|52=20150527-09:50:06|128=TSTW|55=IBM|37=20150527SCJ000820150527|11=SCJ000820150527|17=2039|20=0|54=1|40=2|59=0|38=208|14=17|32=1|151=900|6=33.2200|39=1|150=1|58=Partial Fill|60=20150527-09:50:09|75=20150407|31=33.2200|44=33.2200|10=162|
8=FIX.4.2|9=0174|35=D|49=SSIC|56=BRDG|34=2110|52=20150527-09:50:09|11=SCJ007920150527|1=350123451|21=1|336=0|55=APPL|48=40049J206|167=CS|54=2|38=206|40=2|44=33.22|59=0|47=A|7029=98Z|8927=0|8031=1|10=221|
8=FIX.4.2|9=297|35=8|34=2111|50=KWA0057|57=RIPT|49=BPSSLR|76=TEST|56=BFSUS|52=20150527-09:50:07|128=TSTW|55=ADP|37=20150527SCJ003720150527|11=SCJ003720150527|17=2207|20=0|54=2|40=2|59=0|38=203|14=5|32=5|151=900|6=33.2200|39=1|150=1|58=Partial Fill|60=20150527-09:50:09|75=20150407|31=33.2200|44=33.2200|10=162|
8=FIX.4.2|9=0174|35=D|49=SSIC|56=BRDG|34=2112|52=20150527-09:50:09|11=SCJ008020150527|1=350123451|21=1|336=0|55=IBM|48=40049J206|167=CS|54=2|38=206|40=2|44=33.22|59=0|47=A|7029=98Z|8927=0|8031=1|10=221|
8=FIX.4.2|9=0174|35=D|49=SSIC|56=BRDG|34=2113|52=20150527-09:50:10|11=SCJ008120150527|1=350123451|21=1|336=0|55=GMAC|48=40049J206|167=CS|54=1|38=202|40=2|44=33.22|59=0|47=A|7029=98Z|8927=0|8031=1|10=221|
8=FIX.4.2|9=297|35=8|34=2114|50=KWA0057|57=RIPT|49=BPSSLR|76=TEST|56=BFSUS|52=20150527-09:50:07|128=TSTW|55=BR|37=20150527SCJ002820150527|11=SCJ002820150527|17=2153|20=0|54=2|40=2|59=0|38=209|14=1|32=1|151=900|6=33.2200|39=1|150=1|58=Partial Fill|60=20150527-09:50:10|75=20150407|31=33.2200|44=33.2200|10=162|
8=FIX.4.2|9=0174|35=D|49=SSIC|56=BRDG|34=2115|52=20150527-09:50:10|11=SCJ008220150527|1=350123451|21=1|336=0|55=BR|48=40049J206|167=CS|54=1|38=206|40=2|44=33.22|59=0|47=A|7029=98Z|8927=0|8031=1|10=221|
8=FIX.4.2|9=0174|35=D|49=SSIC|56=BRDG|34=2116|52=20150527-09:50:10|11=SCJ008320150527|1=350123451|21=1|336=0|55=BR|48=40049J206|167=CS|54=1|38=207|40=2|44=33.22|59=0|47=A|7029=98Z|8927=0|8031=1|10=221|
8=FIX.4.2|9=297|35=8|34=2117|50=KWA0057|57=RIPT|49=BPSSLR|76=TEST|56=BFSUS|52=20150527-09:50:07|128=TSTW|55=GMAC|37=20150527SCJ002520150527|11=SCJ002520150527|17=2135|20=0|54=2|40=2|59=0|38=200|14=182|32=146|151=900|6=33.2200|39=1|150=1|58=Partial Fill|60=20150527-09:50:10|75=20150407|31=33.2200|44=33.2200|10=162|
8=FIX.4.2|9=0174|35=D|49=SSIC|56=BRDG|34=2118|52=20150527-09:50:10|11=SCJ008420150527|1=350123451|21=1|336=0|55=GOOG|48=40049J206|167=CS|54=2|38=207|40=2|44=33.22|59=0|47=A|7029=98Z|8927=0|8031=1|10=221|
8=FIX.4.2|9=0174|35=D|49=SSIC|56=BRDG|34=2119|52=20150527-09:50:10|11=SCJ008520150527|1=350123451|21=1|336=0|55=APPL|48=40049J206|167=CS|54=2|38=204|40=2|44=33.22|59=0|47=A|7029=98Z|8927=0|8031=1|10=221|
8=FIX.4.2|9=0174|35=D|49=SSIC|56=BRDG|34=2120|52=20150527-09:50:10|11=SCJ008620150527|1=350123451|21=1|336=0|55=BR|48=40049J206|167=CS|54=1|38=201|40=2|44=33.22|59=0|47=A|7029=98Z|8927=0|8031=1|10=221|
8=FIX.4.2|9=0174|35=D|49=SSIC|56=BRDG|34=2121|52=20150527-09:50:10|11=SCJ008720150527|1=350123451|21=1|336=0|55=APPL|48=40049J206|167=CS|54=1|38=207|40=2|44=33.22|59=0|47=A|7029=98Z|8927=0|8031=1|10=221|
8=FIX.4.2|9=297|35=8|34=2122|50=KWA0057|57=RIPT|49=BPSSLR|76=TEST|56=BFSUS|52=20150527-09:50:07|128=TSTW|55=BR|37=20150527SCJ002320150527|11=SCJ002320150527|17=2124|20=0|54=1|40=2|59=0|38=206|14=17|32=17|151=900|6=33.2200|39=1|150=1|58=Partial Fill|60=20150527-09:50:10|75=20150407|31=33.2200|44=33.2200|10=162|
8=FIX.4.2|9=0174|35=D|49=SSIC|56=BRDG|34=2123|52=20150527-09:50:10|11=SCJ008820150527|1=350123451|21=1|336=0|55=IBM|48=40049J206|167=CS|54=2|38=201|40=2|44=33.22|59=0|47=A|7029=98Z|8927=0|8031=1|10=221|
8=FIX.4.2|9=0174|35=D|49=SSIC|56=BRDG|34=2124|52=20150527-09:50:10|11=SCJ008920150527|1=350123451|21=1|336=0|55=YHOO|48=40049J206|167=CS|54=2|38=201|40=2|44=33.22|59=0|47=A|7029=98Z|8927=0|8031=1|10=221|
8=FIX.4.2|9=0174|35=D|49=SSIC|56=BRDG|34=2125|52=20150527-09:50:10|11=SCJ009020150527|1=350123451|21=1|336=0|55=GOOG|48=40049J206|167=CS|54=2|38=208|40=2|44=33.22|59=0|47=A|7029=98Z|8927=0|8031=1|10=221|
8=FIX.4.2|9=297|35=8|34=2126|50=KWA0057|57=RIPT|49=BPSSLR|76=TEST|56=BFSUS|52=20150527-09:50:07|128=TSTW|55=PNSN|37=20150527SCJ002420150527|11=SCJ002420150527|17=2131|20=0|54=2|40=2|59=0|38=202|14=70|32=64|151=900|6=33.2200|39=1|150=1|58=Partial Fill|60=20150527-09:50:10|75=20150407|31=33.2200|44=33.2200|10=162|
8=FIX.4.2|9=0174|35=D|49=SSIC|56=BRDG|34=2127|52=20150527-09:50:10|11=SCJ009120150527|1=350123451|21=1|336=0|55=YHOO|48=40049J206|167=CS|54=2|38=209|40=2|44=33.22|59=0|47=A|7029=98Z|8927=0|8031=1|10=221|
8=FIX.4.2|9=297|35=8|34=2128|50=KWA0057|57=RIPT|49=BPSSLR|76=TEST|56=BFSUS|52=20150527-09:50:07|128=TSTW|55=PNSN|37=20150527SCJ002720150527|11=SCJ002720150527|17=2147|20=0|54=1|40=2|59=0|38=202|14=44|32=44|151=900|6=33.2200|39=1|150=1|58=Partial Fill|60=20150527-09:50:10|75=20150407|31=33.2200|44=33.2200|10=162|
8=FIX.4.2|9=0174|35=D|49=SSIC|56=BRDG|34=2129|52=20150527-09:50:10|11=SCJ009220150527|1=350123451|21=1|336=0|55=GOOG|48=40049J206|167=CS|54=2|38=209|40=2|44=33.22|59=0|47=A|7029=98Z|8927=0|8031=1|10=221|
8=FIX.4.2|9=0174|35=D|49=SSIC|56=BRDG|34=2130|52=20150527-09:50:10|11=SCJ009320150527|1=350123451|21=1|336=0|55=IBM|48=40049J206|167=CS|54=1|38=207|40=2|44=33.22|59=0|47=A|7029=98Z|8927=0|8031=1|10=221|
8=FIX.4.2|9=297|35=8|34=2131|50=KWA0057|57=RIPT|49=BPSSLR|76=TEST|56=BFSUS|52=20150527-09:50:07|128=TSTW|55=PNSN|37=20150527SCJ002920150527|11=SCJ002920150527|17=2160|20=0|54=2|40=2|59=0|38=201|14=1|32=1|151=900|6=33.2200|39=1|150=1|58=Partial Fill|60=20150527-09:50:10|75=20150407|31=33.2200|44=33.2200|10=162|
8=FIX.4.2|9=0174|35=D|49=SSIC|56=BRDG|34=2132|52=20150527-09:50:10|11=SCJ009420150527|1=350123451|21=1|336=0|55=GE|48=40049J206|167=CS|54=2|38=207|40=2|44=33.22|59=0|47=A|7029=98Z|8927=0|8031=1|10=221|
8=FIX.4.2|9=0174|35=D|49=SSIC|56=BRDG|34=2133|52=20150527-09:50:10|11=SCJ009520150527|1=350123451|21=1|336=0|55=GOOG|48=40049J206|167=CS|54=2|38=200|40=2|44=33.22|59=0|47=A|7029=98Z|8927=0|8031=1|10=221|
8=FIX.4.2|9=297|35=8|34=2134|50=KWA0057|57=RIPT|49=BPSSLR|76=TEST|56=BFSUS|52=20150527-09:50:06|128=TSTW|55=YHOO|37=20150527SCJ001420150527|11=SCJ001420150527|17=2069|20=0|54=1|40=2|59=0|38=200|14=159|32=80|151=900|6=33.2200|39=1|150=1|58=Partial Fill|60=20150527-09:50:10|75=20150407|31=33.2200|44=33.2200|10=162|
8=FIX.4.2|9=0174|35=D|49=SSIC|56=BRDG|34=2135|52=20150527-09:50:10|11=SCJ009620150527|1=350123451|21=1|336=0|55=GE|48=40049J206|167=CS|54=1|38=207|40=2|44=33.22|59=0|47=A|7029=98Z|8927=0|8031=1|10=221|
8=FIX.4.2|9=297|35=8|34=2136|50=KWA0057|57=RIPT|49=BPSSLR|76=TEST|56=BFSUS|52=20150527-09:50:06|128=TSTW|55=ADP|37=20150527SCJ000720150527|11=SCJ000720150527|17=2028|20=0|54=2|40=2|59=0|38=201|14=15|32=9|151=900|6=33.2200|39=1|150=1|58=Partial Fill|60=20150527-09:50:10|75=20150407|31=33.2200|44=33.2200|10=162|
8=FIX.4.2|9=0174|35=D|49=SSIC|56=BRDG|34=2137|52=20150527-09:50:10|11=SCJ009720150527|1=350123451|21=1|336=0|55=YHOO|48=40049J206|167=CS|54=1|38=204|40=2|44=33.22|59=0|47=A|7029=98Z|8927=0|8031=1|10=221|
8=FIX.4.2|9=297|35=8|34=2138|50=KWA0057|57=RIPT|49=BPSSLR|76=TEST|56=BFSUS|52=20150527-09:50:06|128=TSTW|55=BR|37=20150527SCJ001620150527|11=SCJ001620150527|17=2079|20=0|54=2|40=2|59=0|38=203|14=58|32=38|151=900|6=33.2200|39=1|150=1|58=Partial Fill|60=20150527-09:50:11|75=20150407|31=33.2200|44=33.2200|10=162|
8=FIX.4.2|9=0174|35=D|49=SSIC|56=BRDG|34=2139|52=20150527-09:50:11|11=SCJ009820150527|1=350123451|21=1|336=0|55=IBM|48=40049J206|167=CS|54=2|38=209|40=2|44=33.22|59=0|47=A|7029=98Z|8927=0|8031=1|10=221|
8=FIX.4.2|9=0174|35=D|49=SSIC|56=BRDG|34=2140|52=20150527-09:50:11|11=SCJ009920150527|1=350123451|21=1|336=0|55=PNSN|48=40049J206|167=CS|54=2|38=202|40=2|44=33.22|59=0|47=A|7029=98Z|8927=0|8031=1|10=221|
8=FIX.4.2|9=0174|35=D|49=SSIC|56=BRDG|34=2141|52=20150527-09:50:11|11=SCJ010020150527|1=350123451|21=1|336=0|55=GOOG|48=40049J206|167=CS|54=1|38=201|40=2|44=33.22|59=0|47=A|7029=98Z|8927=0|8031=1|10=221|
8=FIX.4.2|9=0174|35=D|49=SSIC|56=BRDG|34=2142|52=20150527-09:50:11|11=SCJ010120150527|1=350123451|21=1|336=0|55=PNSN|48=40049J206|167=CS|54=2|38=202|40=2|44=33.22|59=0|47=A|7029=98Z|8927=0|8031=1|10=221|
8=FIX.4.2|9=297|35=8|34=2143|50=KWA0057|57=RIPT|49=BPSSLR|76=TEST|56=BFSUS|52=20150527-09:50:06|128=TSTW|55=GE|37=20150527SCJ001720150527|11=SCJ001720150527|17=2091|20=0|54=2|40=2|59=0|38=209|14=51|32=19|151=900|6=33.2200|39=1|150=1|58=Partial Fill|60=20150527-09:50:11|75=20150407|31=33.2200|44=33.2200|10=162|
8=FIX.4.2|9=0174|35=D|49=SSIC|56=BRDG|34=2144|52=20150527-09:50:11|11=SCJ010220150527|1=350123451|21=1|336=0|55=BR|48=40049J206|167=CS|54=2|38=200|40=2|44=33.22|59=0|47=A|7029=98Z|8927=0|8031=1|10=221|
8=FIX.4.2|9=0174|35=D|49=SSIC|56=BRDG|34=2145|52=20150527-09:50:11|11=SCJ010320150527|1=350123451|21=1|336=0|55=APPL|48=40049J206|167=CS|54=1|38=206|40=2|44=33.22|59=0|47=A|7029=98Z|8927=0|8031=1|10=221|
8=FIX.4.2|9=0174|35=D|49=SSIC|56=BRDG|34=2146|52=20150527-09:50:11|11=SCJ010420150527|1=350123451|21=1|336=0|55=GOOG|48=40049J206|167=CS|54=1|38=201|40=2|44=33.22|59=0|47=A|7029=98Z|8927=0|8031=1|10=221|
8=FIX.4.2|9=0174|35=D|49=SSIC|56=BRDG|34=2147|52=20150527-09:50:11|11=SCJ010520150527|1=350123451|21=1|336=0|55=YHOO|48=40049J206|167=CS|54=2|38=201|40=2|44=33.22|59=0|47=A|7029=98Z|8927=0|8031=1|10=221|
8=FIX.4.2|9=297|35=8|34=2148|50=KWA0057|57=RIPT|49=BPSSLR|76=TEST|56=BFSUS|52=20150527-09:50:07|128=TSTW|55=IBM|37=20150527SCJ003020150527|11=SCJ003020150527|17=2167|20=0|54=2|40=2|59=0|38=208|14=7|32=7|151=900|6=33.2200|39=1|150=1|58=Partial Fill|60=20150527-09:50:11|75=20150407|31=33.2200|44=33.2200|10=162|
8=FIX.4.2|9=0174|35=D|49=SSIC|56=BRDG|34=2149|52=20150527-09:50:11|11=SCJ010620150527|1=350123451|21=1|336=0|55=APPL|48=40049J206|167=CS|54=1|38=206|40=2|44=33.22|59=0|47=A|7029=98Z|8927=0|8031=1|10=221|
8=FIX.4.2|9=297|35=8|34=2150|50=KWA0057|57=RIPT|49=BPSSLR|76=TEST|56=BFSUS|52=20150527-09:50:06|128=TSTW|55=BR|37=20150527SCJ001620150527|11=SCJ001620150527|17=2087|20=0|54=2|40=2|59=0|38=203|14=59|32=1|151=900|6=33.2200|39=1|150=1|58=Partial Fill|60=20150527-09:50:11|75=20150407|31=33.2200|44=33.2200|10=162|
8=FIX.4.2|9=0174|35=D|49=SSIC|56=BRDG|34=2151|52=20150527-09:50:11|11=SCJ010720150527|1=350123451|21=1|336=0|55=YHOO|48=40049J206|167=CS|54=2|38=206|40=2|44=33.22|59=0|47=A|7029=98Z|8927=0|8031=1|10=221|
8=FIX.4.2|9=297|35=8|34=2152|50=KWA0057|57=RIPT|49=BPSSLR|76=TEST|56=BFSUS|52=20150527-09:50:07|128=TSTW|55=IBM|37=20150527SCJ003120150527|11=SCJ003120150527|17=2176|20=0|54=1|40=2|59=0|38=200|14=1|32=1|151=900|6=33.2200|39=1|150=1|58=Partial Fill|60=20150527-09:50:11|75=20150407|31=33.2200|44=33.2200|10=162|
8=FIX.4.2|9=0174|35=D|49=SSIC|56=BRDG|34=2153|52=20150527-09:50:11|11=SCJ010820150527|1=350123451|21=1|336=0|55=GOOG|48=40049J206|167=CS|54=2|38=201|40=2|44=33.22|59=0|47=A|7029=98Z|8927=0|8031=1|10=221|
8=FIX.4.2|9=0174|35=D|49=SSIC|56=BRDG|34=2154|52=20150527-09:50:11|11=SCJ010920150527|1=350123451|21=1|336=0|55=IBM|48=40049J206|167=CS|54=2|38=207|40=2|44=33.22|59=0|47=A|7029=98Z|8927=0|8031=1|10=221|
8=FIX.4.2|9=297|35=8|34=2155|50=KWA0057|57=RIPT|49=BPSSLR|76=TEST|56=BFSUS|52=20150527-09:50:06|128=TSTW|55=ADP|37=20150527SCJ001020150527|11=SCJ001020150527|17=2051|20=0|54=2|40=2|59=0|38=208|14=1|32=1|151=900|6=33.2200|39=1|150=1|58=Partial Fill|60=20150527-09:50:11|75=20150407|31=33.2200|44=33.2200|10=162|
8=FIX.4.2|9=0174|35=D|49=SSIC|56=BRDG|34=2156|52=20150527-09:50:11|11=SCJ011020150527|1=350123451|21=1|336=0|55=IBM|48=40049J206|167=CS|54=1|38=205|40=2|44=33.22|59=0|47=A|7029=98Z|8927=0|8031=1|10=221|
8=FIX.4.2|9=0174|35=D|49=SSIC|56=BRDG|34=2157|52=20150527-09:50:11|11=SCJ011120150527|1=350123451|21=1|336=0|55=GOOG|48=40049J206|167=CS|54=1|38=208|40=2|44=33.22|59=0|47=A|7029=98Z|8927=0|8031=1|10=221|
8=FIX.4.2|9=0174|35=D|49=SSIC|56=BRDG|34=2158|52=20150527-09:50:11|11=SCJ011220150527|1=350123451|21=1|336=0|55=GMAC|48=40049J206|167=CS|54=2|38=201|40=2|44=33.22|59=0|47=A|7029=98Z|8927=0|8031=1|10=221|
8=FIX.4.2|9=0174|35=D|49=SSIC|56=BRDG|34=2159|52=20150527-09:50:11|11=SCJ011320150527|1=350123451|21=1|336=0|55=YHOO|48=40049J206|167=CS|54=1|38=201|40=2|44=33.22|59=0|47=A|7029=98Z|8927=0|8031=1|10=221|
8=FIX.4.2|9=297|35=8|34=2160|50=KWA0057|57=RIPT|49=BPSSLR|76=TEST|56=BFSUS|52=20150527-09:50:07|128=TSTW|55=ADP|37=20150527SCJ003720150527|11=SCJ003720150527|17=2204|20=0|54=2|40=2|59=0|38=203|14=76|32=71|151=900|6=33.2200|39=1|150=1|58=Partial Fill|60=20150527-09:50:11|75=20150407|31=33.2200|44=33.2200|10=162|
8=FIX.4.2|9=0174|35=D|49=SSIC|56=BRDG|34=2161|52=20150527-09:50:11|11=SCJ011420150527|1=350123451|21=1|336=0|55=PNSN|48=40049J206|167=CS|54=2|38=204|40=2|44=33.22|59=0|47=A|7029=98Z|8927=0|8031=1|10=221|
8=FIX.4.2|9=297|35=8|34=2162|50=KWA0057|57=RIPT|49=BPSSLR|76=TEST|56=BFSUS|52=20150527-09:50:08|128=TSTW|55=PNSN|37=20150527SCJ004720150527|11=SCJ004720150527|17=2267|20=0|54=2|40=2|59=0|38=203|14=77|32=77|151=900|6=33.2200|39=1|150=1|58=Partial Fill|60=20150527-09:50:11|75=20150407|31=33.2200|44=33.2200|10=162|
8=FIX.4.2|9=0174|35=D|49=SSIC|56=BRDG|34=2163|52=20150527-09:50:11|11=SCJ011520150527|1=350123451|21=1|336=0|55=ADP|48=40049J206|167=CS|54=1|38=208|40=2|44=33.22|59=0|47=A|7029=98Z|8927=0|8031=1|10=221|
8=FIX.4.2|9=0174|35=D|49=SSIC|56=BRDG|34=2164|52=20150527-09:50:11|11=SCJ011620150527|1=350123451|21=1|336=0|55=YHOO|48=40049J206|167=CS|54=2|38=201|40=2|44=33.22|59=0|47=A|7029=98Z|8927=0|8031=1|10=221|
8=FIX.4.2|9=0174|35=D|49=SSIC|56=BRDG|34=2165|52=20150527-09:50:11|11=SCJ011720150527|1=350123451|21=1|336=0|55=GE|48=40049J206|167=CS|54=1|38=203|40=2|44=33.22|59=0|47=A|7029=98Z|8927=0|8031=1|10=221|
8=FIX.4.2|9=0174|35=D|49=SSIC|56=BRDG|34=2166|52=20150527-09:50:11|11=SCJ011820150527|1=350123451|21=1|336=0|55=ADP|48=40049J206|167=CS|54=1|38=208|40=2|44=33.22|59=0|47=A|7029=98Z|8927=0|8031=1|10=221|
8=FIX.4.2|9=297|35=8|34=2167|50=KWA0057|57=RIPT|49=BPSSLR|76=TEST|56=BFSUS|52=20150527-09:50:08|128=TSTW|55=BR|37=20150527SCJ005120150527|11=SCJ005120150527|17=2288|20=0|54=2|40=2|59=0|38=208|14=37|32=37|151=900|6=33.2200|39=1|150=1|58=Partial Fill|60=20150527-09:50:11|75=20150407|31=33.2200|44=33.2200|10=162|
8=FIX.4.2|9=0174|35=D|49=SSIC|56=BRDG|34=2168|52=20150527-09:50:11|11=SCJ011920150527|1=350123451|21=1|336=0|55=ADP|48=40049J206|167=CS|54=2|38=203|40=2|44=33.22|59=0|47=A|7029=98Z|8927=0|8031=1|10=221|
8=FIX.4.2|9=0174|35=D|49=SSIC|56=BRDG|34=2169|52=20150527-09:50:11|11=SCJ012020150527|1=350123451|21=1|336=0|55=GE|48=40049J206|167=CS|54=1|38=200|40=2|44=33.22|59=0|47=A|7029=98Z|8927=0|8031=1|10=221|
8=FIX.4.2|9=297|35=8|34=2170|50=KWA0057|57=RIPT|49=BPSSLR|76=TEST|56=BFSUS|52=20150527-09:50:08|128=TSTW|55=PNSN|37=20150527SCJ004420150527|11=SCJ004420150527|17=2254|20=0|54=1|40=2|59=0|38=200|14=25|32=25|151=900|6=33.2200|39=1|150=1|58=Partial Fill|60=20150527-09:50:12|75=20150407|31=33.2200|44=33.2200|10=162|
8=FIX.4.2|9=0174|35=D|49=SSIC|56=BRDG|34=2171|52=20150527-09:50:12|11=SCJ012120150527|1=350123451|21=1|336=0|55=GE|48=40049J206|167=CS|54=2|38=205|40=2|44=33.22|59=0|47=A|7029=98Z|8927=0|8031=1|10=221|
8=FIX.4.2|9=297|35=8|34=2172|50=KWA0057|57=RIPT|49=BPSSLR|76=TEST|56=BFSUS|52=20150527-09:50:07|128=TSTW|55=BR|37=20150527SCJ003220150527|11=SCJ003220150527|17=2178|20=0|54=1|40=2|59=0|38=201|14=13|32=13|151=900|6=33.2200|39=1|150=1|58=Partial Fill|60=20150527-09:50:12|75=20150407|31=33.2200|44=33.2200|10=162|
8=FIX.4.2|9=0174|35=D|49=SSIC|56=BRDG|34=2173|52=20150527-09:50:12|11=SCJ012220150527|1=350123451|21=1|336=0|55=GOOG|48=40049J206|167=CS|54=2|38=205|40=2|44=33.22|59=0|47=A|7029=98Z|8927=0|8031=1|10=221|
8=FIX.4.2|9=297|35=8|34=2174|50=KWA0057|57=RIPT|49=BPSSLR|76=TEST|56=BFSUS|52=20150527-09:50:07|128=TSTW|55=IBM|37=20150527SCJ003020150527|11=SCJ003020150527|17=2163|20=0|54=2|40=2|59=0|38=208|14=101|32=94|151=900|6=33.2200|39=1|150=1|58=Partial Fill|60=20150527-09:50:12|75=20150407|31=33.2200|44=33.2200|10=162|
8=FIX.4.2|9=0174|35=D|49=SSIC|56=BRDG|34=2175|52=20150527-09:50:12|11=SCJ012320150527|1=350123451|21=1|336=0|55=APPL|48=40049J206|167=CS|54=1|38=205|40=2|44=33.22|59=0|47=A|7029=98Z|8927=0|8031=1|10=221|
8=FIX.4.2|9=0174|35=D|49=SSIC|56=BRDG|34=2176|52=20150527-09:50:12|11=SCJ012420150527|1=350123451|21=1|336=0|55=PNSN|48=40049J206|167=CS|54=1|38=207|40=2|44=33.22|59=0|47=A|7029=98Z|8927=0|8031=1|10=221|
8=FIX.4.2|9=297|35=8|34=2177|50=KWA0057|57=RIPT|49=BPSSLR|76=TEST|56=BFSUS|52=20150527-09:50:06|128=TSTW|55=ADP|37=20150527SCJ000720150527|11=SCJ000720150527|17=2025|20=0|54=2|40=2|59=0|38=201|14=63|32=48|151=900|6=33.2200|39=1|150=1|58=Partial Fill|60=20150527-09:50:12|75=20150407|31=33.2200|44=33.2200|10=162|
8=FIX.4.2|9=0174|35=D|49=SSIC|56=BRDG|34=2178|52=20150527-09:50:12|11=SCJ012520150527|1=350123451|21=1|336=0|55=APPL|48=40049J206|167=CS|54=2|38=202|40=2|44=33.22|59=0|47=A|7029=98Z|8927=0|8031=1|10=221|
8=FIX.4.2|9=297|35=8|34=2179|50=KWA0057|57=RIPT|49=BPSSLR|76=TEST|56=BFSUS|52=20150527-09:50:07|128=TSTW|55=BR|37=20150527SCJ002620150527|11=SCJ002620150527|17=2143|20=0|54=2|40=2|59=0|38=202|14=7|32=7|151=900|6=33.2200|39=1|150=1|58=Partial Fill|60=20150527-09:50:12|75=20150407|31=33.2200|44=33.2200|10=162|
8=FIX.4.2|9=0174|35=D|49=SSIC|56=BRDG|34=2180|52=20150527-09:50:12|11=SCJ012620150527|1=350123451|21=1|336=0|55=GOOG|48=40049J206|167=CS|54=2|38=208|40=2|44=33.22|59=0|47=A|7029=98Z|8927=0|8031=1|10=221|
8=FIX.4.2|9=0174|35=D|49=SSIC|56=BRDG|34=2181|52=20150527-09:50:12|11=SCJ012720150527|1=350123451|21=1|336=0|55=GMAC|48=40049J206|167=CS|54=1|38=205|40=2|44=33.22|59=0|47=A|7029=98Z|8927=0|8031=1|10=221|
8=FIX.4.2|9=0174|35=D|49=SSIC|56=BRDG|34=2182|52=20150527-09:50:12|11=SCJ012820150527|1=350123451|21=1|336=0|55=IBM|48=40049J206|167=CS|54=1|38=207|40=2|44=33.22|59=0|47=A|7029=98Z|8927=0|8031=1|10=221|
8=FIX.4.2|9=297|35=8|34=2183|50=KWA0057|57=RIPT|49=BPSSLR|76=TEST|56=BFSUS|52=20150527-09:50:08|128=TSTW|55=YHOO|37=20150527SCJ005920150527|11=SCJ005920150527|17=2329|20=0|54=2|40=2|59=0|38=206|14=16|32=16|151=900|6=33.2200|39=1|150=1|58=Partial Fill|60=20150527-09:50:12|75=20150407|31=33.2200|44=33.2200|10=162|
8=FIX.4.2|9=0174|35=D|49=SSIC|56=BRDG|34=2184|52=20150527-09:50:12|11=SCJ012920150527|1=350123451|21=1|336=0|55=APPL|48=40049J206|167=CS|54=1|38=206|40=2|44=33.22|59=0|47=A|7029=98Z|8927=0|8031=1|10=221|
8=FIX.4.2|9=0174|35=D|49=SSIC|56=BRDG|34=2186|52=20150527-09:50:12|11=SCJ013020150527|1=350123451|21=1|336=0|55=ADP|48=40049J206|167=CS|54=2|38=208|40=2|44=33.22|59=0|47=A|7029=98Z|8927=0|8031=1|10=221|
8=FIX.4.2|9=297|35=8|34=2185|50=KWA0057|57=RIPT|49=BPSSLR|76=TEST|56=BFSUS|52=20150527-09:50:08|128=TSTW|55=ADP|37=20150527SCJ006020150527|11=SCJ006020150527|17=2333|20=0|54=2|40=2|59=0|38=209|14=1|32=1|151=900|6=33.2200|39=1|150=1|58=Partial Fill|60=20150527-09:50:12|75=20150407|31=33.2200|44=33.2200|10=162|
8=FIX.4.2|9=297|35=8|34=2187|50=KWA0057|57=RIPT|49=BPSSLR|76=TEST|56=BFSUS|52=20150527-09:50:07|128=TSTW|55=APPL|37=20150527SCJ003820150527|11=SCJ003820150527|17=2213|20=0|54=1|40=2|59=0|38=204|14=2|32=2|151=900|6=33.2200|39=1|150=1|58=Partial Fill|60=20150527-09:50:12|75=20150407|31=33.2200|44=33.2200|10=162|
8=FIX.4.2|9=0174|35=D|49=SSIC|56=BRDG|34=2188|52=20150527-09:50:12|11=SCJ013120150527|1=350123451|21=1|336=0|55=YHOO|48=40049J206|167=CS|54=2|38=200|40=2|44=33.22|59=0|47=A|7029=98Z|8927=0|8031=1|10=221|
8=FIX.4.2|9=0174|35=D|49=SSIC|56=BRDG|34=2189|52=20150527-09:50:12|11=SCJ013220150527|1=350123451|21=1|336=0|55=APPL|48=40049J206|167=CS|54=1|38=203|40=2|44=33.22|59=0|47=A|7029=98Z|8927=0|8031=1|10=221|
8=FIX.4.2|9=0174|35=D|49=SSIC|56=BRDG|34=2190|52=20150527-09:50:12|11=SCJ013320150527|1=350123451|21=1|336=0|55=GMAC|48=40049J206|167=CS|54=1|38=208|40=2|44=33.22|59=0|47=A|7029=98Z|8927=0|8031=1|10=221|
8=FIX.4.2|9=297|35=8|34=2191|50=KWA0057|57=RIPT|49=BPSSLR|76=TEST|56=BFSUS|52=20150527-09:50:08|128=TSTW|55=ADP|37=20150527SCJ004820150527|11=SCJ004820150527|17=2274|20=0|54=2|40=2|59=0|38=205|14=14|32=14|151=900|6=33.2200|39=1|150=1|58=Partial Fill|60=20150527-09:50:12|75=20150407|31=33.2200|44=33.2200|10=162|
8=FIX.4.2|9=0174|35=D|49=SSIC|56=BRDG|34=2192|52=20150527-09:50:12|11=SCJ013420150527|1=350123451|21=1|336=0|55=YHOO|48=40049J206|167=CS|54=1|38=208|40=2|44=33.22|59=0|47=A|7029=98Z|8927=0|8031=1|10=221|
8=FIX.4.2|9=0174|35=D|49=SSIC|56=BRDG|34=2193|52=20150527-09:50:12|11=SCJ013520150527|1=350123451|21=1|336=0|55=APPL|48=40049J206|167=CS|54=2|38=209|40=2|44=33.22|59=0|47=A|7029=98Z|8927=0|8031=1|10=221|
8=FIX.4.2|9=297|35=8|34=2194|50=KWA0057|57=RIPT|49=BPSSLR|76=TEST|56=BFSUS|52=20150527-09:50:07|128=TSTW|55=IBM|37=20150527SCJ003020150527|11=SCJ003020150527|17=2170|20=0|54=2|40=2|59=0|38=208|14=103|32=2|151=900|6=33.2200|39=1|150=1|58=Partial Fill|60=20150527-09:50:12|75=20150407|31=33.2200|44=33.2200|10=162|
8=FIX.4.2|9=0174|35=D|49=SSIC|56=BRDG|34=2195|52=20150527-09:50:12|11=SCJ013620150527|1=350123451|21=1|336=0|55=GOOG|48=40049J206|167=CS|54=1|38=203|40=2|44=33.22|59=0|47=A|7029=98Z|8927=0|8031=1|10=221|
8=FIX.4.2|9=297|35=8|34=2196|50=KWA0057|57=RIPT|49=BPSSLR|76=TEST|56=BFSUS|52=20150527-09:50:08|128=TSTW|55=ADP|37=20150527SCJ005320150527|11=SCJ005320150527|17=2298|20=0|54=1|40=2|59=0|38=203|14=2|32=2|151=900|6=33.2200|39=1|150=1|58=Partial Fill|60=20150527-09:50:12|75=20150407|31=33.2200|44=33.2200|10=162|
8=FIX.4.2|9=0174|35=D|49=SSIC|56=BRDG|34=2197|52=20150527-09:50:12|11=SCJ013720150527|1=350123451|21=1|336=0|55=APPL|48=40049J206|167=CS|54=2|38=209|40=2|44=33.22|59=0|47=A|7029=98Z|8927=0|8031=1|10=221|
8=FIX.4.2|9=0174|35=D|49=SSIC|56=BRDG|34=2198|52=20150527-09:50:13|11=SCJ013820150527|1=350123451|21=1|336=0|55=GOOG|48=40049J206|167=CS|54=2|38=201|40=2|44=33.22|59=0|47=A|7029=98Z|8927=0|8031=1|10=221|
8=FIX.4.2|9=0174|35=D|49=SSIC|56=BRDG|34=2199|52=20150527-09:50:13|11=SCJ013920150527|1=350123451|21=1|336=0|55=BR|48=40049J206|167=CS|54=1|38=204|40=2|44=33.22|59=0|47=A|7029=98Z|8927=0|8031=1|10=221|
8=FIX.4.2|9=0174|35=D|49=SSIC|56=BRDG|34=2200|52=20150527-09:50:13|11=SCJ014020150527|1=350123451|21=1|336=0|55=PNSN|48=40049J206|167=CS|54=1|38=208|40=2|44=33.22|59=0|47=A|7029=98Z|8927=0|8031=1|10=221|
8=FIX.4.2|9=0174|35=D|49=SSIC|56=BRDG|34=2201|52=20150527-09:50:13|11=SCJ014120150527|1=350123451|21=1|336=0|55=IBM|48=40049J206|167=CS|54=2|38=208|40=2|44=33.22|59=0|47=A|7029=98Z|8927=0|8031=1|10=221|
8=FIX.4.2|9=297|35=8|34=2202|50=KWA0057|57=RIPT|49=BPSSLR|76=TEST|56=BFSUS|52=20150527-09:50:07|128=TSTW|55=PNSN|37=20150527SCJ002720150527|11=SCJ002720150527|17=2150|20=0|54=1|40=2|59=0|38=202|14=45|32=1|151=900|6=33.2200|39=1|150=1|58=Partial Fill|60=20150527-09:50:13|75=20150407|31=33.2200|44=33.2200|10=162|
8=FIX.4.2|9=0174|35=D|49=SSIC|56=BRDG|34=2203|52=20150527-09:50:13|11=SCJ014220150527|1=350123451|21=1|336=0|55=GOOG|48=40049J206|167=CS|54=1|38=201|40=2|44=33.22|59=0|47=A|7029=98Z|8927=0|8031=1|10=221|
8=FIX.4.2|9=0174|35=D|49=SSIC|56=BRDG|34=2204|52=20150527-09:50:13|11=SCJ014320150527|1=350123451|21=1|336=0|55=GOOG|48=40049J206|167=CS|54=2|38=207|40=2|44=33.22|59=0|47=A|7029=98Z|8927=0|8031=1|10=221|
8=FIX.4.2|9=0174|35=D|49=SSIC|56=BRDG|34=2205|52=20150527-09:50:13|11=SCJ014420150527|1=350123451|21=1|336=0|55=IBM|48=40049J206|167=CS|54=1|38=207|40=2|44=33.22|59=0|47=A|7029=98Z|8927=0|8031=1|10=221|
8=FIX.4.2|9=297|35=8|34=2206|50=KWA0057|57=RIPT|49=BPSSLR|76=TEST|56=BFSUS|52=20150527-09:50:08|128=TSTW|55=PNSN|37=20150527SCJ004020150527|11=SCJ004020150527|17=2225|20=0|54=1|40=2|59=0|38=202|14=59|32=59|151=900|6=33.2200|39=1|150=1|58=Partial Fill|60=20150527-09:50:13|75=20150407|31=33.2200|44=33.2200|10=162|
8=FIX.4.2|9=0174|35=D|49=SSIC|56=BRDG|34=2207|52=20150527-09:50:13|11=SCJ014520150527|1=350123451|21=1|336=0|55=BR|48=40049J206|167=CS|54=1|38=208|40=2|44=33.22|59=0|47=A|7029=98Z|8927=0|8031=1|10=221|
8=FIX.4.2|9=0174|35=D|49=SSIC|56=BRDG|34=2208|52=20150527-09:50:13|11=SCJ014620150527|1=350123451|21=1|336=0|55=PNSN|48=40049J206|167=CS|54=2|38=201|40=2|44=33.22|59=0|47=A|7029=98Z|8927=0|8031=1|10=221|
8=FIX.4.2|9=0174|35=D|49=SSIC|56=BRDG|34=2209|52=20150527-09:50:13|11=SCJ014720150527|1=350123451|21=1|336=0|55=GE|48=40049J206|167=CS|54=1|38=206|40=2|44=33.22|59=0|47=A|7029=98Z|8927=0|8031=1|10=221|
8=FIX.4.2|9=297|35=8|34=2210|50=KWA0057|57=RIPT|49=BPSSLR|76=TEST|56=BFSUS|52=20150527-09:50:08|128=TSTW|55=PNSN|37=20150527SCJ004020150527|11=SCJ004020150527|17=2230|20=0|54=1|40=2|59=0|38=202|14=60|32=1|151=900|6=33.2200|39=1|150=1|58=Partial Fill|60=20150527-09:50:13|75=20150407|31=33.2200|44=33.2200|10=162|
8=FIX.4.2|9=0174|35=D|49=SSIC|56=BRDG|34=2212|52=20150527-09:50:13|11=SCJ014820150527|1=350123451|21=1|336=0|55=GOOG|48=40049J206|167=CS|54=2|38=208|40=2|44=33.22|59=0|47=A|7029=98Z|8927=0|8031=1|10=221|
8=FIX.4.2|9=297|35=8|34=2211|50=KWA0057|57=RIPT|49=BPSSLR|76=TEST|56=BFSUS|52=20150527-09:50:07|128=TSTW|55=BR|37=20150527SCJ002220150527|11=SCJ002220150527|17=2121|20=0|54=1|40=2|59=0|38=206|14=14|32=12|151=900|6=33.2200|39=1|150=1|58=Partial Fill|60=20150527-09:50:13|75=20150407|31=33.2200|44=33.2200|10=162|
8=FIX.4.2|9=0174|35=D|49=SSIC|56=BRDG|34=2213|52=20150527-09:50:13|11=SCJ014920150527|1=350123451|21=1|336=0|55=IBM|48=40049J206|167=CS|54=2|38=205|40=2|44=33.22|59=0|47=A|7029=98Z|8927=0|8031=1|10=221|
8=FIX.4.2|9=0174|35=D|49=SSIC|56=BRDG|34=2214|52=20150527-09:50:13|11=SCJ015020150527|1=350123451|21=1|336=0|55=BR|48=40049J206|167=CS|54=1|38=209|40=2|44=33.22|59=0|47=A|7029=98Z|8927=0|8031=1|10=221|
8=FIX.4.2|9=0174|35=D|49=SSIC|56=BRDG|34=2215|52=20150527-09:50:13|11=SCJ015120150527|1=350123451|21=1|336=0|55=APPL|48=40049J206|167=CS|54=2|38=203|40=2|44=33.22|59=0|47=A|7029=98Z|8927=0|8031=1|10=221|
8=FIX.4.2|9=0174|35=D|49=SSIC|56=BRDG|34=2216|52=20150527-09:50:13|11=SCJ015220150527|1=350123451|21=1|336=0|55=YHOO|48=40049J206|167=CS|54=2|38=205|40=2|44=33.22|59=0|47=A|7029=98Z|8927=0|8031=1|10=221|
8=FIX.4.2|9=297|35=8|34=2217|50=KWA0057|57=RIPT|49=BPSSLR|76=TEST|56=BFSUS|52=20150527-09:50:06|128=TSTW|55=ADP|37=20150527SCJ000720150527|11=SCJ000720150527|17=2026|20=0|54=2|40=2|59=0|38=201|14=178|32=115|151=900|6=33.2200|39=1|150=1|58=Partial Fill|60=20150527-09:50:13|75=20150407|31=33.2200|44=33.2200|10=162|
8=FIX.4.2|9=0174|35=D|49=SSIC|56=BRDG|34=2218|52=20150527-09:50:13|11=SCJ015320150527|1=350123451|21=1|336=0|55=ADP|48=40049J206|167=CS|54=1|38=208|40=2|44=33.22|59=0|47=A|7029=98Z|8927=0|8031=1|10=221|
8=FIX.4.2|9=0174|35=D|49=SSIC|56=BRDG|34=2219|52=20150527-09:50:13|11=SCJ015420150527|1=350123451|21=1|336=0|55=BR|48=40049J206|167=CS|54=2|38=200|40=2|44=33.22|59=0|47=A|7029=98Z|8927=0|8031=1|10=221|
8=FIX.4.2|9=0174|35=D|49=SSIC|56=BRDG|34=2220|52=20150527-09:50:13|11=SCJ015520150527|1=350123451|21=1|336=0|55=ADP|48=40049J206|167=CS|54=1|38=202|40=2|44=33.22|59=0|47=A|7029=98Z|8927=0|8031=1|10=221|
8=FIX.4.2|9=0174|35=D|49=SSIC|56=BRDG|34=2221|52=20150527-09:50:13|11=SCJ015620150527|1=350123451|21=1|336=0|55=GE|48=40049J206|167=CS|54=2|38=206|40=2|44=33.22|59=0|47=A|7029=98Z|8927=0|8031=1|10=221|
8=FIX.4.2|9=297|35=8|34=2222|50=KWA0057|57=RIPT|49=BPSSLR|76=TEST|56=BFSUS|52=20150527-09:50:07|128=TSTW|55=BR|37=20150527SCJ002820150527|11=SCJ002820150527|17=2154|20=0|54=2|40=2|59=0|38=209|14=26|32=25|151=900|6=33.2200|39=1|150=1|58=Partial Fill|60=20150527-09:50:13|75=20150407|31=33.2200|44=33.2200|10=162|
8=FIX.4.2|9=0174|35=D|49=SSIC|56=BRDG|34=2223|52=20150527-09:50:13|11=SCJ015720150527|1=350123451|21=1|336=0|55=GE|48=40049J206|167=CS|54=1|38=209|40=2|44=33.22|59=0|47=A|7029=98Z|8927=0|8031=1|10=221|
8=FIX.4.2|9=297|35=8|34=2224|50=KWA0057|57=RIPT|49=BPSSLR|76=TEST|56=BFSUS|52=20150527-09:50:07|128=TSTW|55=IBM|37=20150527SCJ003120150527|11=SCJ003120150527|17=2171|20=0|54=1|40=2|59=0|38=200|14=71|32=70|151=900|6=33.2200|39=1|150=1|58=Partial Fill|60=20150527-09:50:13|75=20150407|31=33.2200|44=33.2200|10=162|
8=FIX.4.2|9=0174|35=D|49=SSIC|56=BRDG|34=2226|52=20150527-09:50:13|11=SCJ015820150527|1=350123451|21=1|336=0|55=BR|48=40049J206|167=CS|54=2|38=202|40=2|44=33.22|59=0|47=A|7029=98Z|8927=0|8031=1|10=221|
8=FIX.4.2|9=297|35=8|34=2225|50=KWA0057|57=RIPT|49=BPSSLR|76=TEST|56=BFSUS|52=20150527-09:50:08|128=TSTW|55=BR|37=20150527SCJ005820150527|11=SCJ005820150527|17=2323|20=0|54=1|40=2|59=0|38=209|14=1|32=1|151=900|6=33.2200|39=1|150=1|58=Partial Fill|60=20150527-09:50:13|75=20150407|31=33.2200|44=33.2200|10=162|
8=FIX.4.2|9=0174|35=D|49=SSIC|56=BRDG|34=2228|52=20150527-09:50:13|11=SCJ015920150527|1=350123451|21=1|336=0|55=YHOO|48=40049J206|167=CS|54=2|38=204|40=2|44=33.22|59=0|47=A|7029=98Z|8927=0|8031=1|10=221|
8=FIX.4.2|9=297|35=8|34=2227|50=KWA0057|57=RIPT|49=BPSSLR|76=TEST|56=BFSUS|52=20150527-09:50:09|128=TSTW|55=APPL|37=20150527SCJ006320150527|11=SCJ006320150527|17=2350|20=0|54=2|40=2|59=0|38=203|14=2|32=2|151=900|6=33.2200|39=1|150=1|58=Partial Fill|60=20150527-09:50:13|75=20150407|31=33.2200|44=33.2200|10=162|
8=FIX.4.2|9=0174|35=D|49=SSIC|56=BRDG|34=2229|52=20150527-09:50:14|11=SCJ016020150527|1=350123451|21=1|336=0|55=ADP|48=40049J206|167=CS|54=2|38=204|40=2|44=33.22|59=0|47=A|7029=98Z|8927=0|8031=1|10=221|
8=FIX.4.2|9=297|35=8|34=2230|50=KWA0057|57=RIPT|49=BPSSLR|76=TEST|56=BFSUS|52=20150527-09:50:08|128=TSTW|55=YHOO|37=20150527SCJ005920150527|11=SCJ005920150527|17=2327|20=0|54=2|40=2|59=0|38=206|14=44|32=28|151=900|6=33.2200|39=1|150=1|58=Partial Fill|60=20150527-09:50:14|75=20150407|31=33.2200|44=33.2200|10=162|
8=FIX.4.2|9=0174|35=D|49=SSIC|56=BRDG|34=2231|52=20150527-09:50:14|11=SCJ016120150527|1=350123451|21=1|336=0|55=YHOO|48=40049J206|167=CS|54=2|38=204|40=2|44=33.22|59=0|47=A|7029=98Z|8927=0|8031=1|10=221|
8=FIX.4.2|9=0174|35=D|49=SSIC|56=BRDG|34=2232|52=20150527-09:50:14|11=SCJ016220150527|1=350123451|21=1|336=0|55=ADP|48=40049J206|167=CS|54=1|38=209|40=2|44=33.22|59=0|47=A|7029=98Z|8927=0|8031=1|10=221|
8=FIX.4.2|9=0174|35=D|49=SSIC|56=BRDG|34=2233|52=20150527-09:50:14|11=SCJ016320150527|1=350123451|21=1|336=0|55=GE|48=40049J206|167=CS|54=1|38=200|40=2|44=33.22|59=0|47=A|7029=98Z|8927=0|8031=1|10=221|
8=FIX.4.2|9=297|35=8|34=2234|50=KWA0057|57=RIPT|49=BPSSLR|76=TEST|56=BFSUS|52=20150527-09:50:07|128=TSTW|55=IBM|37=20150527SCJ003020150527|11=SCJ003020150527|17=2165|20=0|54=2|40=2|59=0|38=208|14=112|32=9|151=900|6=33.2200|39=1|150=1|58=Partial Fill|60=20150527-09:50:14|75=20150407|31=33.2200|44=33.2200|10=162|
8=FIX.4.2|9=0174|35=D|49=SSIC|56=BRDG|34=2235|52=20150527-09:50:14|11=SCJ016420150527|1=350123451|21=1|336=0|55=YHOO|48=40049J206|167=CS|54=1|38=206|40=2|44=33.22|59=0|47=A|7029=98Z|8927=0|8031=1|10=221|
8=FIX.4.2|9=0174|35=D|49=SSIC|56=BRDG|34=2236|52=20150527-09:50:14|11=SCJ016520150527|1=350123451|21=1|336=0|55=IBM|48=40049J206|167=CS|54=1|38=209|40=2|44=33.22|59=0|47=A|7029=98Z|8927=0|8031=1|10=221|
8=FIX.4.2|9=0174|35=D|49=SSIC|56=BRDG|34=2237|52=20150527-09:50:14|11=SCJ016620150527|1=350123451|21=1|336=0|55=GOOG|48=40049J206|167=CS|54=1|38=200|40=2|44=33.22|59=0|47=A|7029=98Z|8927=0|8031=1|10=221|
8=FIX.4.2|9=0174|35=D|49=SSIC|56=BRDG|34=2238|52=20150527-09:50:14|11=SCJ016720150527|1=350123451|21=1|336=0|55=PNSN|48=40049J206|167=CS|54=2|38=207|40=2|44=33.22|59=0|47=A|7029=98Z|8927=0|8031=1|10=221|
8=FIX.4.2|9=0174|35=D|49=SSIC|56=BRDG|34=2239|52=20150527-09:50:14|11=SCJ016820150527|1=350123451|21=1|336=0|55=YHOO|48=40049J206|167=CS|54=2|38=209|40=2|44=33.22|59=0|47=A|7029=98Z|8927=0|8031=1|10=221|
8=FIX.4.2|9=297|35=8|34=2240|50=KWA0057|57=RIPT|49=BPSSLR|76=TEST|56=BFSUS|52=20150527-09:50:09|128=TSTW|55=ADP|37=20150527SCJ006620150527|11=SCJ006620150527|17=2369|20=0|54=2|40=2|59=0|38=204|14=29|32=29|151=900|6=33.2200|39=1|150=1|58=Partial Fill|60=20150527-09:50:14|75=20150407|31=33.2200|44=33.2200|10=162|
8=FIX.4.2|9=0174|35=D|49=SSIC|56=BRDG|34=2241|52=20150527-09:50:14|11=SCJ016920150527|1=350123451|21=1|336=0|55=BR|48=40049J206|167=CS|54=1|38=208|40=2|44=33.22|59=0|47=A|7029=98Z|8927=0|8031=1|10=221|
8=FIX.4.2|9=297|35=8|34=2242|50=KWA0057|57=RIPT|49=BPSSLR|76=TEST|56=BFSUS|52=20150527-09:50:07|128=TSTW|55=APPL|37=20150527SCJ003820150527|11=SCJ003820150527|17=2215|20=0|54=1|40=2|59=0|38=204|14=3|32=1|151=900|6=33.2200|39=1|150=1|58=Partial Fill|60=20150527-09:50:14|75=20150407|31=33.2200|44=33.2200|10=162|
8=FIX.4.2|9=0174|35=D|49=SSIC|56=BRDG|34=2244|52=20150527-09:50:14|11=SCJ017020150527|1=350123451|21=1|336=0|55=IBM|48=40049J206|167=CS|54=1|38=207|40=2|44=33.22|59=0|47=A|7029=98Z|8927=0|8031=1|10=221|
8=FIX.4.2|9=297|35=8|34=2243|50=KWA0057|57=RIPT|49=BPSSLR|76=TEST|56=BFSUS|52=20150527-09:50:08|128=TSTW|55=BR|37=20150527SCJ005820150527|11=SCJ005820150527|17=2320|20=0|54=1|40=2|59=0|38=209|14=4|32=3|151=900|6=33.2200|39=1|150=1|58=Partial Fill|60=20150527-09:50:14|75=20150407|31=33.2200|44=33.2200|10=162|
8=FIX.4.2|9=0174|35=D|49=SSIC|56=BRDG|34=2245|52=20150527-09:50:14|11=SCJ017120150527|1=350123451|21=1|336=0|55=BR|48=40049J206|167=CS|54=2|38=204|40=2|44=33.22|59=0|47=A|7029=98Z|8927=0|8031=1|10=221|
8=FIX.4.2|9=0174|35=D|49=SSIC|56=BRDG|34=2246|52=20150527-09:50:14|11=SCJ017220150527|1=350123451|21=1|336=0|55=IBM|48=40049J206|167=CS|54=1|38=208|40=2|44=33.22|59=0|47=A|7029=98Z|8927=0|8031=1|10=221|
8=FIX.4.2|9=0174|35=D|49=SSIC|56=BRDG|34=2247|52=20150527-09:50:14|11=SCJ017320150527|1=350123451|21=1|336=0|55=GOOG|48=40049J206|167=CS|54=2|38=202|40=2|44=33.22|59=0|47=A|7029=98Z|8927=0|8031=1|10=221|
8=FIX.4.2|9=297|35=8|34=2248|50=KWA0057|57=RIPT|49=BPSSLR|76=TEST|56=BFSUS|52=20150527-09:50:07|128=TSTW|55=IBM|37=20150527SCJ003020150527|11=SCJ003020150527|17=2164|20=0|54=2|40=2|59=0|38=208|14=176|32=64|151=900|6=33.2200|39=1|150=1|58=Partial Fill|60=20150527-09:50:14|75=20150407|31=33.2200|44=33.2200|10=162|
8=FIX.4.2|9=0174|35=D|49=SSIC|56=BRDG|34=2249|52=20150527-09:50:14|11=SCJ017420150527|1=350123451|21=1|336=0|55=ADP|48=40049J206|167=CS|54=1|38=204|40=2|44=33.22|59=0|47=A|7029=98Z|8927=0|8031=1|10=221|
8=FIX.4.2|9=0174|35=D|49=SSIC|56=BRDG|34=2250|52=20150527-09:50:14|11=SCJ017520150527|1=350123451|21=1|336=0|55=APPL|48=40049J206|167=CS|54=1|38=206|40=2|44=33.22|59=0|47=A|7029=98Z|8927=0|8031=1|10=221|
8=FIX.4.2|9=297|35=8|34=2251|50=KWA0057|57=RIPT|49=BPSSLR|76=TEST|56=BFSUS|52=20150527-09:50:07|128=TSTW|55=ADP|37=20150527SCJ003720150527|11=SCJ003720150527|17=2208|20=0|54=2|40=2|59=0|38=203|14=158|32=82|151=900|6=33.2200|39=1|150=1|58=Partial Fill|60=20150527-09:50:14|75=20150407|31=33.2200|44=33.2200|10=162|
8=FIX.4.2|9=0174|35=D|49=SSIC|56=BRDG|34=2252|52=20150527-09:50:14|11=SCJ017620150527|1=350123451|21=1|336=0|55=GMAC|48=40049J206|167=CS|54=1|38=202|40=2|44=33.22|59=0|47=A|7029=98Z|8927=0|8031=1|10=221|
8=FIX.4.2|9=0174|35=D|49=SSIC|56=BRDG|34=2253|52=20150527-09:50:14|11=SCJ017720150527|1=350123451|21=1|336=0|55=IBM|48=40049J206|167=CS|54=2|38=206|40=2|44=33.22|59=0|47=A|7029=98Z|8927=0|8031=1|10=221|
8=FIX.4.2|9=297|35=8|34=2254|50=KWA0057|57=RIPT|49=BPSSLR|76=TEST|56=BFSUS|52=20150527-09:50:07|128=TSTW|55=BR|37=20150527SCJ002220150527|11=SCJ002220150527|17=2120|20=0|54=1|40=2|59=0|38=206|14=22|32=8|151=900|6=33.2200|39=1|150=1|58=Partial Fill|60=20150527-09:50:14|75=20150407|31=33.2200|44=33.2200|10=162|
8=FIX.4.2|9=0174|35=D|49=SSIC|56=BRDG|34=2255|52=20150527-09:50:14|11=SCJ017820150527|1=350123451|21=1|336=0|55=IBM|48=40049J206|167=CS|54=2|38=205|40=2|44=33.22|59=0|47=A|7029=98Z|8927=0|8031=1|10=221|
8=FIX.4.2|9=0174|35=D|49=SSIC|56=BRDG|34=2256|52=20150527-09:50:14|11=SCJ017920150527|1=350123451|21=1|336=0|55=YHOO|48=40049J206|167=CS|54=1|38=203|40=2|44=33.22|59=0|47=A|7029=98Z|8927=0|8031=1|10=221|
8=FIX.4.2|9=0174|35=D|49=SSIC|56=BRDG|34=2257|52=20150527-09:50:14|11=SCJ018020150527|1=350123451|21=1|336=0|55=ADP|48=40049J206|167=CS|54=2|38=200|40=2|44=33.22|59=0|47=A|7029=98Z|8927=0|8031=1|10=221|
8=FIX.4.2|9=297|35=8|34=2258|50=KWA0057|57=RIPT|49=BPSSLR|76=TEST|56=BFSUS|52=20150527-09:50:09|128=TSTW|55=IBM|37=20150527SCJ007320150527|11=SCJ007320150527|17=2416|20=0|54=1|40=2|59=0|38=200|14=1|32=1|151=900|6=33.2200|39=1|150=1|58=Partial Fill|60=20150527-09:50:14|75=20150407|31=33.2200|44=33.2200|10=162|
8=FIX.4.2|9=0174|35=D|49=SSIC|56=BRDG|34=2259|52=20150527-09:50:14|11=SCJ018120150527|1=350123451|21=1|336=0|55=GMAC|48=40049J206|167=CS|54=2|38=203|40=2|44=33.22|59=0|47=A|7029=98Z|8927=0|8031=1|10=221|
8=FIX.4.2|9=297|35=8|34=2260|50=KWA0057|57=RIPT|49=BPSSLR|76=TEST|56=BFSUS|52=20150527-09:50:07|128=TSTW|55=GMAC|37=20150527SCJ002520150527|11=SCJ002520150527|17=2136|20=0|54=2|40=2|59=0|38=200|14=193|32=11|151=900|6=33.2200|39=1|150=1|58=Partial Fill|60=20150527-09:50:14|75=20150407|31=33.2200|44=33.2200|10=162|
8=FIX.4.2|9=0174|35=D|49=SSIC|56=BRDG|34=2261|52=20150527-09:50:14|11=SCJ018220150527|1=350123451|21=1|336=0|55=IBM|48=40049J206|167=CS|54=2|38=207|40=2|44=33.22|59=0|47=A|7029=98Z|8927=0|8031=1|10=221|
8=FIX.4.2|9=297|35=8|34=2262|50=KWA0057|57=RIPT|49=BPSSLR|76=TEST|56=BFSUS|52=20150527-09:50:09|128=TSTW|55=IBM|37=20150527SCJ007320150527|11=SCJ007320150527|17=2407|20=0|54=1|40=2|59=0|38=200|14=51|32=50|151=900|6=33.2200|39=1|150=1|58=Partial Fill|60=20150527-09:50:15|75=20150407|31=33.2200|44=33.2200|10=162|
8=FIX.4.2|9=0174|35=D|49=SSIC|56=BRDG|34=2263|52=20150527-09:50:15|11=SCJ018320150527|1=350123451|21=1|336=0|55=GMAC|48=40049J206|167=CS|54=2|38=205|40=2|44=33.22|59=0|47=A|7029=98Z|8927=0|8031=1|10=221|
8=FIX.4.2|9=297|35=8|34=2264|50=KWA0057|57=RIPT|49=BPSSLR|76=TEST|56=BFSUS|52=20150527-09:50:06|128=TSTW|55=APPL|37=20150527SCJ000620150527|11=SCJ000620150527|17=2021|20=0|54=1|40=2|59=0|38=209|14=74|32=74|151=900|6=33.2200|39=1|150=1|58=Partial Fill|60=20150527-09:50:15|75=20150407|31=33.2200|44=33.2200|10=162|
8=FIX.4.2|9=0174|35=D|49=SSIC|56=BRDG|34=2265|52=20150527-09:50:15|11=SCJ018420150527|1=350123451|21=1|336=0|55=GMAC|48=40049J206|167=CS|54=1|38=207|40=2|44=33.22|59=0|47=A|7029=98Z|8927=0|8031=1|10=221|
8=FIX.4.2|9=0174|35=D|49=SSIC|56=BRDG|34=2266|52=20150527-09:50:15|11=SCJ018520150527|1=350123451|21=1|336=0|55=ADP|48=40049J206|167=CS|54=2|38=209|40=2|44=33.22|59=0|47=A|7029=98Z|8927=0|8031=1|10=221|
8=FIX.4.2|9=0174|35=D|49=SSIC|56=BRDG|34=2267|52=20150527-09:50:15|11=SCJ018620150527|1=350123451|21=1|336=0|55=GMAC|48=40049J206|167=CS|54=1|38=204|40=2|44=33.22|59=0|47=A|7029=98Z|8927=0|8031=1|10=221|
8=FIX.4.2|9=0174|35=D|49=SSIC|56=BRDG|34=2268|52=20150527-09:50:15|11=SCJ018720150527|1=350123451|21=1|336=0|55=GMAC|48=40049J206|167=CS|54=1|38=206|40=2|44=33.22|59=0|47=A|7029=98Z|8927=0|8031=1|10=221|
8=FIX.4.2|9=0174|35=D|49=SSIC|56=BRDG|34=2269|52=20150527-09:50:15|11=SCJ018820150527|1=350123451|21=1|336=0|55=GMAC|48=40049J206|167=CS|54=2|38=205|40=2|44=33.22|59=0|47=A|7029=98Z|8927=0|8031=1|10=221|
8=FIX.4.2|9=0174|35=D|49=SSIC|56=BRDG|34=2270|52=20150527-09:50:15|11=SCJ018920150527|1=350123451|21=1|336=0|55=YHOO|48=40049J206|167=CS|54=2|38=205|40=2|44=33.22|59=0|47=A|7029=98Z|8927=0|8031=1|10=221|
8=FIX.4.2|9=297|35=8|34=2271|50=KWA0057|57=RIPT|49=BPSSLR|76=TEST|56=BFSUS|52=20150527-09:50:08|128=TSTW|55=GOOG|37=20150527SCJ004120150527|11=SCJ004120150527|17=2236|20=0|54=1|40=2|59=0|38=205|14=16|32=16|151=900|6=33.2200|39=1|150=1|58=Partial Fill|60=20150527-09:50:15|75=20150407|31=33.2200|44=33.2200|10=162|
8=FIX.4.2|9=0174|35=D|49=SSIC|56=BRDG|34=2272|52=20150527-09:50:15|11=SCJ019020150527|1=350123451|21=1|336=0|55=ADP|48=40049J206|167=CS|54=2|38=206|40=2|44=33.22|59=0|47=A|7029=98Z|8927=0|8031=1|10=221|
8=FIX.4.2|9=0174|35=D|49=SSIC|56=BRDG|34=2273|52=20150527-09:50:15|11=SCJ019120150527|1=350123451|21=1|336=0|55=GMAC|48=40049J206|167=CS|54=2|38=201|40=2|44=33.22|59=0|47=A|7029=98Z|8927=0|8031=1|10=221|
8=FIX.4.2|9=0174|35=D|49=SSIC|56=BRDG|34=2274|52=20150527-09:50:15|11=SCJ019220150527|1=350123451|21=1|336=0|55=GMAC|48=40049J206|167=CS|54=2|38=200|40=2|44=33.22|59=0|47=A|7029=98Z|8927=0|8031=1|10=221|
8=FIX.4.2|9=0174|35=D|49=SSIC|56=BRDG|34=2275|52=20150527-09:50:15|11=SCJ019320150527|1=350123451|21=1|336=0|55=YHOO|48=40049J206|167=CS|54=1|38=208|40=2|44=33.22|59=0|47=A|7029=98Z|8927=0|8031=1|10=221|
8=FIX.4.2|9=297|35=8|34=2276|50=KWA0057|57=RIPT|49=BPSSLR|76=TEST|56=BFSUS|52=20150527-09:50:09|128=TSTW|55=GMAC|37=20150527SCJ006120150527|11=SCJ006120150527|17=2337|20=0|54=2|40=2|59=0|38=201|14=4|32=4|151=900|6=33.2200|39=1|150=1|58=Partial Fill|60=20150527-09:50:15|75=20150407|31=33.2200|44=33.2200|10=162|
8=FIX.4.2|9=0174|35=D|49=SSIC|56=BRDG|34=2277|52=20150527-09:50:15|11=SCJ019420150527|1=350123451|21=1|336=0|55=BR|48=40049J206|167=CS|54=1|38=200|40=2|44=33.22|59=0|47=A|7029=98Z|8927=0|8031=1|10=221|
8=FIX.4.2|9=0174|35=D|49=SSIC|56=BRDG|34=2278|52=20150527-09:50:15|11=SCJ019520150527|1=350123451|21=1|336=0|55=ADP|48=40049J206|167=CS|54=1|38=206|40=2|44=33.22|59=0|47=A|7029=98Z|8927=0|8031=1|10=221|
8=FIX.4.2|9=0174|35=D|49=SSIC|56=BRDG|34=2279|52=20150527-09:50:15|11=SCJ019620150527|1=350123451|21=1|336=0|55=YHOO|48=40049J206|167=CS|54=2|38=201|40=2|44=33.22|59=0|47=A|7029=98Z|8927=0|8031=1|10=221|
8=FIX.4.2|9=297|35=8|34=2280|50=KWA0057|57=RIPT|49=BPSSLR|76=TEST|56=BFSUS|52=20150527-09:50:08|128=TSTW|55=ADP|37=20150527SCJ005320150527|11=SCJ005320150527|17=2294|20=0|54=1|40=2|59=0|38=203|14=13|32=11|151=900|6=33.2200|39=1|150=1|58=Partial Fill|60=20150527-09:50:15|75=20150407|31=33.2200|44=33.2200|10=162|
8=FIX.4.2|9=0174|35=D|49=SSIC|56=BRDG|34=2281|52=20150527-09:50:15|11=SCJ019720150527|1=350123451|21=1|336=0|55=IBM|48=40049J206|167=CS|54=1|38=203|40=2|44=33.22|59=0|47=A|7029=98Z|8927=0|8031=1|10=221|
8=FIX.4.2|9=297|35=8|34=2282|50=KWA0057|57=RIPT|49=BPSSLR|76=TEST|56=BFSUS|52=20150527-09:50:06|128=TSTW|55=APPL|37=20150527SCJ000620150527|11=SCJ000620150527|17=2024|20=0|54=1|40=2|59=0|38=209|14=75|32=1|151=900|6=33.2200|39=1|150=1|58=Partial Fill|60=20150527-09:50:15|75=20150407|31=33.2200|44=33.2200|10=162|
8=FIX.4.2|9=0174|35=D|49=SSIC|56=BRDG|34=2283|52=20150527-09:50:15|11=SCJ019820150527|1=350123451|21=1|336=0|55=YHOO|48=40049J206|167=CS|54=2|38=201|40=2|44=33.22|59=0|47=A|7029=98Z|8927=0|8031=1|10=221|
8=FIX.4.2|9=0174|35=D|49=SSIC|56=BRDG|34=2284|52=20150527-09:50:15|11=SCJ019920150527|1=350123451|21=1|336=0|55=GE|48=40049J206|167=CS|54=1|38=209|40=2|44=33.22|59=0|47=A|7029=98Z|8927=0|8031=1|10=221|
8=FIX.4.2|9=0174|35=D|49=SSIC|56=BRDG|34=2285|52=20150527-09:50:15|11=SCJ020020150527|1=350123451|21=1|336=0|55=PNSN|48=40049J206|167=CS|54=1|38=203|40=2|44=33.22|59=0|47=A|7029=98Z|8927=0|8031=1|10=221|
8=FIX.4.2|9=297|35=8|34=2286|50=KWA0057|57=RIPT|49=BPSSLR|76=TEST|56=BFSUS|52=20150527-09:50:08|128=TSTW|55=ADP|37=20150527SCJ006020150527|11=SCJ006020150527|17=2332|20=0|54=2|40=2|59=0|38=209|14=127|32=126|151=900|6=33.2200|39=1|150=1|58=Partial Fill|60=20150527-09:50:15|75=20150407|31=33.2200|44=33.2200|10=162|
8=FIX.4.2|9=0174|35=D|49=SSIC|56=BRDG|34=2287|52=20150527-09:50:15|11=SCJ020120150527|1=350123451|21=1|336=0|55=ADP|48=40049J206|167=CS|54=2|38=200|40=2|44=33.22|59=0|47=A|7029=98Z|8927=0|8031=1|10=221|
8=FIX.4.2|9=0174|35=D|49=SSIC|56=BRDG|34=2288|52=20150527-09:50:15|11=SCJ020220150527|1=350123451|21=1|336=0|55=APPL|48=40049J206|167=CS|54=2|38=209|40=2|44=33.22|59=0|47=A|7029=98Z|8927=0|8031=1|10=221|
8=FIX.4.2|9=0174|35=D|49=SSIC|56=BRDG|34=2289|52=20150527-09:50:15|11=SCJ020320150527|1=350123451|21=1|336=0|55=GOOG|48=40049J206|167=CS|54=2|38=207|40=2|44=33.22|59=0|47=A|7029=98Z|8927=0|8031=1|10=221|
8=FIX.4.2|9=297|35=8|34=2290|50=KWA0057|57=RIPT|49=BPSSLR|76=TEST|56=BFSUS|52=20150527-09:50:10|128=TSTW|55=APPL|37=20150527SCJ008520150527|11=SCJ008520150527|17=2482|20=0|54=2|40=2|59=0|38=204|14=16|32=16|151=900|6=33.2200|39=1|150=1|58=Partial Fill|60=20150527-09:50:15|75=20150407|31=33.2200|44=33.2200|10=162|
8=FIX.4.2|9=0174|35=D|49=SSIC|56=BRDG|34=2291|52=20150527-09:50:16|11=SCJ020420150527|1=350123451|21=1|336=0|55=GE|48=40049J206|167=CS|54=2|38=206|40=2|44=33.22|59=0|47=A|7029=98Z|8927=0|8031=1|10=221|
8=FIX.4.2|9=0174|35=D|49=SSIC|56=BRDG|34=2292|52=20150527-09:50:16|11=SCJ020520150527|1=350123451|21=1|336=0|55=ADP|48=40049J206|167=CS|54=2|38=201|40=2|44=33.22|59=0|47=A|7029=98Z|8927=0|8031=1|10=221|
8=FIX.4.2|9=0174|35=D|49=SSIC|56=BRDG|34=2293|52=20150527-09:50:16|11=SCJ020620150527|1=350123451|21=1|336=0|55=GMAC|48=40049J206|167=CS|54=2|38=208|40=2|44=33.22|59=0|47=A|7029=98Z|8927=0|8031=1|10=221|
8=FIX.4.2|9=297|35=8|34=2294|50=KWA0057|57=RIPT|49=BPSSLR|76=TEST|56=BFSUS|52=20150527-09:50:08|128=TSTW|55=YHOO|37=20150527SCJ005220150527|11=SCJ005220150527|17=2292|20=0|54=1|40=2|59=0|38=207|14=3|32=3|151=900|6=33.2200|39=1|150=1|58=Partial Fill|60=20150527-09:50:16|75=20150407|31=33.2200|44=33.2200|10=162|
8=FIX.4.2|9=0174|35=D|49=SSIC|56=BRDG|34=2295|52=20150527-09:50:16|11=SCJ020720150527|1=350123451|21=1|336=0|55=PNSN|48=40049J206|167=CS|54=1|38=200|40=2|44=33.22|59=0|47=A|7029=98Z|8927=0|8031=1|10=221|
8=FIX.4.2|9=0174|35=D|49=SSIC|56=BRDG|34=2296|52=20150527-09:50:16|11=SCJ020820150527|1=350123451|21=1|336=0|55=APPL|48=40049J206|167=CS|54=2|38=202|40=2|44=33.22|59=0|47=A|7029=98Z|8927=0|8031=1|10=221|
8=FIX.4.2|9=297|35=8|34=2297|50=KWA0057|57=RIPT|49=BPSSLR|76=TEST|56=BFSUS|52=20150527-09:50:09|128=TSTW|55=GOOG|37=20150527SCJ007620150527|11=SCJ007620150527|17=2435|20=0|54=2|40=2|59=0|38=201|14=1|32=1|151=900|6=33.2200|39=1|150=1|58=Partial Fill|60=20150527-09:50:16|75=20150407|31=33.2200|44=33.2200|10=162|
8=FIX.4.2|9=0174|35=D|49=SSIC|56=BRDG|34=2299|52=20150527-09:50:16|11=SCJ020920150527|1=350123451|21=1|336=0|55=PNSN|48=40049J206|167=CS|54=1|38=202|40=2|44=33.22|59=0|47=A|7029=98Z|8927=0|8031=1|10=221|
8=FIX.4.2|9=297|35=8|34=2298|50=KWA0057|57=RIPT|49=BPSSLR|76=TEST|56=BFSUS|52=20150527-09:50:09|128=TSTW|55=ADP|37=20150527SCJ007020150527|11=SCJ007020150527|17=2392|20=0|54=1|40=2|59=0|38=206|14=25|32=25|151=900|6=33.2200|39=1|150=1|58=Partial Fill|60=20150527-09:50:16|75=20150407|31=33.2200|44=33.2200|10=162|
8=FIX.4.2|9=0174|35=D|49=SSIC|56=BRDG|34=2300|52=20150527-09:50:16|11=SCJ021020150527|1=350123451|21=1|336=0|55=YHOO|48=40049J206|167=CS|54=2|38=200|40=2|44=33.22|59=0|47=A|7029=98Z|8927=0|8031=1|10=221|
8=FIX.4.2|9=0174|35=D|49=SSIC|56=BRDG|34=2301|52=20150527-09:50:16|11=SCJ021120150527|1=350123451|21=1|336=0|55=PNSN|48=40049J206|167=CS|54=1|38=208|40=2|44=33.22|59=0|47=A|7029=98Z|8927=0|8031=1|10=221|
8=FIX.4.2|9=0174|35=D|49=SSIC|56=BRDG|34=2302|52=20150527-09:50:16|11=SCJ021220150527|1=350123451|21=1|336=0|55=GE|48=40049J206|167=CS|54=2|38=204|40=2|44=33.22|59=0|47=A|7029=98Z|8927=0|8031=1|10=221|
8=FIX.4.2|9=0174|35=D|49=SSIC|56=BRDG|34=2303|52=20150527-09:50:16|11=SCJ021320150527|1=350123451|21=1|336=0|55=GOOG|48=40049J206|167=CS|54=2|38=203|40=2|44=33.22|59=0|47=A|7029=98Z|8927=0|8031=1|10=221|
8=FIX.4.2|9=297|35=8|34=2304|50=KWA0057|57=RIPT|49=BPSSLR|76=TEST|56=BFSUS|52=20150527-09:50:09|128=TSTW|55=GMAC|37=20150527SCJ006220150527|11=SCJ006220150527|17=2341|20=0|54=1|40=2|59=0|38=209|14=35|32=35|151=900|6=33.2200|39=1|150=1|58=Partial Fill|60=20150527-09:50:16|75=20150407|31=33.2200|44=33.2200|10=162|
8=FIX.4.2|9=0174|35=D|49=SSIC|56=BRDG|34=2305|52=20150527-09:50:16|11=SCJ021420150527|1=350123451|21=1|336=0|55=IBM|48=40049J206|167=CS|54=2|38=206|40=2|44=33.22|59=0|47=A|7029=98Z|8927=0|8031=1|10=221|
8=FIX.4.2|9=0174|35=D|49=SSIC|56=BRDG|34=2306|52=20150527-09:50:16|11=SCJ021520150527|1=350123451|21=1|336=0|55=YHOO|48=40049J206|167=CS|54=1|38=203|40=2|44=33.22|59=0|47=A|7029=98Z|8927=0|8031=1|10=221|
8=FIX.4.2|9=297|35=8|34=2307|50=KWA0057|57=RIPT|49=BPSSLR|76=TEST|56=BFSUS|52=20150527-09:50:10|128=TSTW|55=APPL|37=20150527SCJ008520150527|11=SCJ008520150527|17=2481|20=0|54=2|40=2|59=0|38=204|14=115|32=99|151=900|6=33.2200|39=1|150=1|58=Partial Fill|60=20150527-09:50:16|75=20150407|31=33.2200|44=33.2200|10=162|
8=FIX.4.2|9=0174|35=D|49=SSIC|56=BRDG|34=2309|52=20150527-09:50:16|11=SCJ021620150527|1=350123451|21=1|336=0|55=PNSN|48=40049J206|167=CS|54=1|38=200|40=2|44=33.22|59=0|47=A|7029=98Z|8927=0|8031=1|10=221|
8=FIX.4.2|9=297|35=8|34=2308|50=KWA0057|57=RIPT|49=BPSSLR|76=TEST|56=BFSUS|52=20150527-09:50:09|128=TSTW|55=IBM|37=20150527SCJ007120150527|11=SCJ007120150527|17=2398|20=0|54=1|40=2|59=0|38=205|14=32|32=32|151=900|6=33.2200|39=1|150=1|58=Partial Fill|60=20150527-09:50:16|75=20150407|31=33.2200|44=33.2200|10=162|
8=FIX.4.2|9=0174|35=D|49=SSIC|56=BRDG|34=2310|52=20150527-09:50:16|11=SCJ021720150527|1=350123451|21=1|336=0|55=APPL|48=40049J206|167=CS|54=1|38=207|40=2|44=33.22|59=0|47=A|7029=98Z|8927=0|8031=1|10=221|
8=FIX.4.2|9=0174|35=D|49=SSIC|56=BRDG|34=2311|52=20150527-09:50:16|11=SCJ021820150527|1=350123451|21=1|336=0|55=APPL|48=40049J206|167=CS|54=2|38=203|40=2|44=33.22|59=0|47=A|7029=98Z|8927=0|8031=1|10=221|
8=FIX.4.2|9=297|35=8|34=2312|50=KWA0057|57=RIPT|49=BPSSLR|76=TEST|56=BFSUS|52=20150527-09:50:08|128=TSTW|55=YHOO|37=20150527SCJ004320150527|11=SCJ004320150527|17=2249|20=0|54=1|40=2|59=0|38=200|14=116|32=116|151=900|6=33.2200|39=1|150=1|58=Partial Fill|60=20150527-09:50:16|75=20150407|31=33.2200|44=33.2200|10=162|
8=FIX.4.2|9=0174|35=D|49=SSIC|56=BRDG|34=2313|52=20150527-09:50:16|11=SCJ021920150527|1=350123451|21=1|336=0|55=PNSN|48=40049J206|167=CS|54=1|38=201|40=2|44=33.22|59=0|47=A|7029=98Z|8927=0|8031=1|10=221|
8=FIX.4.2|9=0174|35=D|49=SSIC|56=BRDG|34=2314|52=20150527-09:50:16|11=SCJ022020150527|1=350123451|21=1|336=0|55=GE|48=40049J206|167=CS|54=2|38=201|40=2|44=33.22|59=0|47=A|7029=98Z|8927=0|8031=1|10=221|
8=FIX.4.2|9=297|35=8|34=2315|50=KWA0057|57=RIPT|49=BPSSLR|76=TEST|56=BFSUS|52=20150527-09:50:06|128=TSTW|55=PNSN|37=20150527SCJ000220150527|11=SCJ000220150527|17=2001|20=0|54=2|40=2|59=0|38=205|14=97|32=59|151=900|6=33.2200|39=1|150=1|58=Partial Fill|60=20150527-09:50:16|75=20150407|31=33.2200|44=33.2200|10=162|
8=FIX.4.2|9=0174|35=D|49=SSIC|56=BRDG|34=2317|52=20150527-09:50:16|11=SCJ022120150527|1=350123451|21=1|336=0|55=YHOO|48=40049J206|167=CS|54=1|38=202|40=2|44=33.22|59=0|47=A|7029=98Z|8927=0|8031=1|10=221|
8=FIX.4.2|9=297|35=8|34=2316|50=KWA0057|57=RIPT|49=BPSSLR|76=TEST|56=BFSUS|52=20150527-09:50:09|128=TSTW|55=BR|37=20150527SCJ006420150527|11=SCJ006420150527|17=2356|20=0|54=1|40=2|59=0|38=206|14=11|32=11|151=900|6=33.2200|39=1|150=1|58=Partial Fill|60=20150527-09:50:16|75=20150407|31=33.2200|44=33.2200|10=162|
8=FIX.4.2|9=0174|35=D|49=SSIC|56=BRDG|34=2318|52=20150527-09:50:16|11=SCJ022220150527|1=350123451|21=1|336=0|55=YHOO|48=40049J206|167=CS|54=2|38=205|40=2|44=33.22|59=0|47=A|7029=98Z|8927=0|8031=1|10=221|
8=FIX.4.2|9=0174|35=D|49=SSIC|56=BRDG|34=2319|52=20150527-09:50:16|11=SCJ022320150527|1=350123451|21=1|336=0|55=PNSN|48=40049J206|167=CS|54=2|38=201|40=2|44=33.22|59=0|47=A|7029=98Z|8927=0|8031=1|10=221|
8=FIX.4.2|9=297|35=8|34=2320|50=KWA0057|57=RIPT|49=BPSSLR|76=TEST|56=BFSUS|52=20150527-09:50:09|128=TSTW|55=YHOO|37=20150527SCJ006820150527|11=SCJ006820150527|17=2379|20=0|54=1|40=2|59=0|38=201|14=29|32=29|151=900|6=33.2200|39=1|150=1|58=Partial Fill|60=20150527-09:50:17|75=20150407|31=33.2200|44=33.2200|10=162|
8=FIX.4.2|9=0174|35=D|49=SSIC|56=BRDG|34=2321|52=20150527-09:50:17|11=SCJ022420150527|1=350123451|21=1|336=0|55=APPL|48=40049J206|167=CS|54=1|38=205|40=2|44=33.22|59=0|47=A|7029=98Z|8927=0|8031=1|10=221|
8=FIX.4.2|9=297|35=8|34=2322|50=KWA0057|57=RIPT|49=BPSSLR|76=TEST|56=BFSUS|52=20150527-09:50:10|128=TSTW|55=APPL|37=20150527SCJ008520150527|11=SCJ008520150527|17=2483|20=0|54=2|40=2|59=0|38=204|14=116|32=1|151=900|6=33.2200|39=1|150=1|58=Partial Fill|60=20150527-09:50:17|75=20150407|31=33.2200|44=33.2200|10=162|
8=FIX.4.2|9=0174|35=D|49=SSIC|56=BRDG|34=2323|52=20150527-09:50:17|11=SCJ022520150527|1=350123451|21=1|336=0|55=APPL|48=40049J206|167=CS|54=2|38=201|40=2|44=33.22|59=0|47=A|7029=98Z|8927=0|8031=1|10=221|
8=FIX.4.2|9=297|35=8|34=2324|50=KWA0057|57=RIPT|49=BPSSLR|76=TEST|56=BFSUS|52=20150527-09:50:10|128=TSTW|55=GE|37=20150527SCJ009620150527|11=SCJ009620150527|17=2550|20=0|54=1|40=2|59=0|38=207|14=12|32=12|151=900|6=33.2200|39=1|150=1|58=Partial Fill|60=20150527-09:50:17|75=20150407|31=33.2200|44=33.2200|10=162|
8=FIX.4.2|9=0174|35=D|49=SSIC|56=BRDG|34=2325|52=20150527-09:50:17|11=SCJ022620150527|1=350123451|21=1|336=0|55=GMAC|48=40049J206|167=CS|54=1|38=205|40=2|44=33.22|59=0|47=A|7029=98Z|8927=0|8031=1|10=221|
8=FIX.4.2|9=0174|35=D|49=SSIC|56=BRDG|34=2326|52=20150527-09:50:17|11=SCJ022720150527|1=350123451|21=1|336=0|55=GOOG|48=40049J206|167=CS|54=1|38=200|40=2|44=33.22|59=0|47=A|7029=98Z|8927=0|8031=1|10=221|
8=FIX.4.2|9=297|35=8|34=2327|50=KWA0057|57=RIPT|49=BPSSLR|76=TEST|56=BFSUS|52=20150527-09:50:11|128=TSTW|55=IBM|37=20150527SCJ009820150527|11=SCJ009820150527|17=2567|20=0|54=2|40=2|59=0|38=209|14=11|32=11|151=900|6=33.2200|39=1|150=1|58=Partial Fill|60=20150527-09:50:17|75=20150407|31=33.2200|44=33.2200|10=162|
8=FIX.4.2|9=0174|35=D|49=SSIC|56=BRDG|34=2328|52=20150527-09:50:17|11=SCJ022820150527|1=350123451|21=1|336=0|55=APPL|48=40049J206|167=CS|54=2|38=200|40=2|44=33.22|59=0|47=A|7029=98Z|8927=0|8031=1|10=221|
8=FIX.4.2|9=297|35=8|34=2329|50=KWA0057|57=RIPT|49=BPSSLR|76=TEST|56=BFSUS|52=20150527-09:50:10|128=TSTW|55=GE|37=20150527SCJ009620150527|11=SCJ009620150527|17=2549|20=0|54=1|40=2|59=0|38=207|14=22|32=10|151=900|6=33.2200|39=1|150=1|58=Partial Fill|60=20150527-09:50:17|75=20150407|31=33.2200|44=33.2200|10=162|
8=FIX.4.2|9=0174|35=D|49=SSIC|56=BRDG|34=2330|52=20150527-09:50:17|11=SCJ022920150527|1=350123451|21=1|336=0|55=PNSN|48=40049J206|167=CS|54=2|38=209|40=2|44=33.22|59=0|47=A|7029=98Z|8927=0|8031=1|10=221|
8=FIX.4.2|9=0174|35=D|49=SSIC|56=BRDG|34=2331|52=20150527-09:50:17|11=SCJ023020150527|1=350123451|21=1|336=0|55=GOOG|48=40049J206|167=CS|54=1|38=205|40=2|44=33.22|59=0|47=A|7029=98Z|8927=0|8031=1|10=221|
8=FIX.4.2|9=297|35=8|34=2332|50=KWA0057|57=RIPT|49=BPSSLR|76=TEST|56=BFSUS|52=20150527-09:50:07|128=TSTW|55=GMAC|37=20150527SCJ003320150527|11=SCJ003320150527|17=2185|20=0|54=1|40=2|59=0|38=205|14=1|32=1|151=900|6=33.2200|39=1|150=1|58=Partial Fill|60=20150527-09:50:17|75=20150407|31=33.2200|44=33.2200|10=162|
8=FIX.4.2|9=0174|35=D|49=SSIC|56=BRDG|34=2333|52=20150527-09:50:17|11=SCJ023120150527|1=350123451|21=1|336=0|55=IBM|48=40049J206|167=CS|54=1|38=200|40=2|44=33.22|59=0|47=A|7029=98Z|8927=0|8031=1|10=221|
8=FIX.4.2|9=0174|35=D|49=SSIC|56=BRDG|34=2334|52=20150527-09:50:17|11=SCJ023220150527|1=350123451|21=1|336=0|55=YHOO|48=40049J206|167=CS|54=1|38=200|40=2|44=33.22|59=0|47=A|7029=98Z|8927=0|8031=1|10=221|
8=FIX.4.2|9=0174|35=D|49=SSIC|56=BRDG|34=2335|52=20150527-09:50:17|11=SCJ023320150527|1=350123451|21=1|336=0|55=GMAC|48=40049J206|167=CS|54=1|38=205|40=2|44=33.22|59=0|47=A|7029=98Z|8927=0|8031=1|10=221|
8=FIX.4.2|9=297|35=8|34=2336|50=KWA0057|57=RIPT|49=BPSSLR|76=TEST|56=BFSUS|52=20150527-09:50:06|128=TSTW|55=ADP|37=20150527SCJ001020150527|11=SCJ001020150527|17=2050|20=0|54=2|40=2|59=0|38=208|14=2|32=1|151=900|6=33.2200|39=1|150=1|58=Partial Fill|60=20150527-09:50:17|75=20150407|31=33.2200|44=33.2200|10=162|
8=FIX.4.2|9=0174|35=D|49=SSIC|56=BRDG|34=2337|52=20150527-09:50:17|11=SCJ023420150527|1=350123451|21=1|336=0|55=YHOO|48=40049J206|167=CS|54=1|38=204|40=2|44=33.22|59=0|47=A|7029=98Z|8927=0|8031=1|10=221|
8=FIX.4.2|9=0174|35=D|49=SSIC|56=BRDG|34=2338|52=20150527-09:50:17|11=SCJ023520150527|1=350123451|21=1|336=0|55=ADP|48=40049J206|167=CS|54=2|38=206|40=2|44=33.22|59=0|47=A|7029=98Z|8927=0|8031=1|10=221|
8=FIX.4.2|9=0174|35=D|49=SSIC|56=BRDG|34=2339|52=20150527-09:50:17|11=SCJ023620150527|1=350123451|21=1|336=0|55=BR|48=40049J206|167=CS|54=2|38=205|40=2|44=33.22|59=0|47=A|7029=98Z|8927=0|8031=1|10=221|
8=FIX.4.2|9=297|35=8|34=2340|50=KWA0057|57=RIPT|49=BPSSLR|76=TEST|56=BFSUS|52=20150527-09:50:08|128=TSTW|55=APPL|37=20150527SCJ004620150527|11=SCJ004620150527|17=2265|20=0|54=2|40=2|59=0|38=205|14=3|32=3|151=900|6=33.2200|39=1|150=1|58=Partial Fill|60=20150527-09:50:17|75=20150407|31=33.2200|44=33.2200|10=162|
8=FIX.4.2|9=0174|35=D|49=SSIC|56=BRDG|34=2341|52=20150527-09:50:17|11=SCJ023720150527|1=350123451|21=1|336=0|55=BR|48=40049J206|167=CS|54=2|38=206|40=2|44=33.22|59=0|47=A|7029=98Z|8927=0|8031=1|10=221|
8=FIX.4.2|9=297|35=8|34=2342|50=KWA0057|57=RIPT|49=BPSSLR|76=TEST|56=BFSUS|52=20150527-09:50:10|128=TSTW|55=GE|37=20150527SCJ009620150527|11=SCJ009620150527|17=2551|20=0|54=1|40=2|59=0|38=207|14=23|32=1|151=900|6=33.2200|39=1|150=1|58=Partial Fill|60=20150527-09:50:17|75=20150407|31=33.2200|44=33.2200|10=162|
8=FIX.4.2|9=0174|35=D|49=SSIC|56=BRDG|34=2344|52=20150527-09:50:18|11=SCJ023820150527|1=350123451|21=1|336=0|55=APPL|48=40049J206|167=CS|54=2|38=200|40=2|44=33.22|59=0|47=A|7029=98Z|8927=0|8031=1|10=221|
8=FIX.4.2|9=297|35=8|34=2343|50=KWA0057|57=RIPT|49=BPSSLR|76=TEST|56=BFSUS|52=20150527-09:50:11|128=TSTW|55=APPL|37=20150527SCJ010320150527|11=SCJ010320150527|17=2594|20=0|54=1|40=2|59=0|38=206|14=89|32=89|151=900|6=33.2200|39=1|150=1|58=Partial Fill|60=20150527-09:50:18|75=20150407|31=33.2200|44=33.2200|10=162|
8=FIX.4.2|9=0174|35=D|49=SSIC|56=BRDG|34=2345|52=20150527-09:50:18|11=SCJ023920150527|1=350123451|21=1|336=0|55=YHOO|48=40049J206|167=CS|54=2|38=203|40=2|44=33.22|59=0|47=A|7029=98Z|8927=0|8031=1|10=221|
8=FIX.4.2|9=0174|35=D|49=SSIC|56=BRDG|34=2346|52=20150527-09:50:18|11=SCJ024020150527|1=350123451|21=1|336=0|55=BR|48=40049J206|167=CS|54=2|38=201|40=2|44=33.22|59=0|47=A|7029=98Z|8927=0|8031=1|10=221|
8=FIX.4.2|9=0174|35=D|49=SSIC|56=BRDG|34=2347|52=20150527-09:50:18|11=SCJ024120150527|1=350123451|21=1|336=0|55=BR|48=40049J206|167=CS|54=1|38=200|40=2|44=33.22|59=0|47=A|7029=98Z|8927=0|8031=1|10=221|
8=FIX.4.2|9=0174|35=D|49=SSIC|56=BRDG|34=2348|52=20150527-09:50:18|11=SCJ024220150527|1=350123451|21=1|336=0|55=PNSN|48=40049J206|167=CS|54=1|38=209|40=2|44=33.22|59=0|47=A|7029=98Z|8927=0|8031=1|10=221|
8=FIX.4.2|9=0174|35=D|49=SSIC|56=BRDG|34=2349|52=20150527-09:50:18|11=SCJ024320150527|1=350123451|21=1|336=0|55=PNSN|48=40049J206|167=CS|54=1|38=200|40=2|44=33.22|59=0|47=A|7029=98Z|8927=0|8031=1|10=221|
8=FIX.4.2|9=297|35=8|34=2350|50=KWA0057|57=RIPT|49=BPSSLR|76=TEST|56=BFSUS|52=20150527-09:50:11|128=TSTW|55=PNSN|37=20150527SCJ010120150527|11=SCJ010120150527|17=2581|20=0|54=2|40=2|59=0|38=202|14=14|32=14|151=900|6=33.2200|39=1|150=1|58=Partial Fill|60=20150527-09:50:18|75=20150407|31=33.2200|44=33.2200|10=162|
8=FIX.4.2|9=0174|35=D|49=SSIC|56=BRDG|34=2351|52=20150527-09:50:18|11=SCJ024420150527|1=350123451|21=1|336=0|55=GE|48=40049J206|167=CS|54=1|38=209|40=2|44=33.22|59=0|47=A|7029=98Z|8927=0|8031=1|10=221|
8=FIX.4.2|9=297|35=8|34=2352|50=KWA0057|57=RIPT|49=BPSSLR|76=TEST|56=BFSUS|52=20150527-09:50:06|128=TSTW|55=YHOO|37=20150527SCJ001420150527|11=SCJ001420150527|17=2073|20=0|54=1|40=2|59=0|38=200|14=168|32=9|151=900|6=33.2200|39=1|150=1|58=Partial Fill|60=20150527-09:50:18|75=20150407|31=33.2200|44=33.2200|10=162|
8=FIX.4.2|9=0174|35=D|49=SSIC|56=BRDG|34=2353|52=20150527-09:50:18|11=SCJ024520150527|1=350123451|21=1|336=0|55=GOOG|48=40049J206|167=CS|54=2|38=206|40=2|44=33.22|59=0|47=A|7029=98Z|8927=0|8031=1|10=221|
8=FIX.4.2|9=0174|35=D|49=SSIC|56=BRDG|34=2354|52=20150527-09:50:18|11=SCJ024620150527|1=350123451|21=1|336=0|55=ADP|48=40049J206|167=CS|54=2|38=200|40=2|44=33.22|59=0|47=A|7029=98Z|8927=0|8031=1|10=221|
8=FIX.4.2|9=0174|35=D|49=SSIC|56=BRDG|34=2355|52=20150527-09:50:18|11=SCJ024720150527|1=350123451|21=1|336=0|55=IBM|48=40049J206|167=CS|54=2|38=208|40=2|44=33.22|59=0|47=A|7029=98Z|8927=0|8031=1|10=221|
8=FIX.4.2|9=297|35=8|34=2356|50=KWA0057|57=RIPT|49=BPSSLR|76=TEST|56=BFSUS|52=20150527-09:50:10|128=TSTW|55=IBM|37=20150527SCJ008820150527|11=SCJ008820150527|17=2502|20=0|54=2|40=2|59=0|38=201|14=1|32=1|151=900|6=33.2200|39=1|150=1|58=Partial Fill|60=20150527-09:50:18|75=20150407|31=33.2200|44=33.2200|10=162|
8=FIX.4.2|9=0174|35=D|49=SSIC|56=BRDG|34=2357|52=20150527-09:50:18|11=SCJ024820150527|1=350123451|21=1|336=0|55=IBM|48=40049J206|167=CS|54=1|38=200|40=2|44=33.22|59=0|47=A|7029=98Z|8927=0|8031=1|10=221|
8=FIX.4.2|9=0174|35=D|49=SSIC|56=BRDG|34=2358|52=20150527-09:50:18|11=SCJ024920150527|1=350123451|21=1|336=0|55=IBM|48=40049J206|167=CS|54=2|38=204|40=2|44=33.22|59=0|47=A|7029=98Z|8927=0|8031=1|10=221|
8=FIX.4.2|9=0174|35=D|49=SSIC|56=BRDG|34=2359|52=20150527-09:50:18|11=SCJ025020150527|1=350123451|21=1|336=0|55=BR|48=40049J206|167=CS|54=2|38=207|40=2|44=33.22|59=0|47=A|7029=98Z|8927=0|8031=1|10=221|
8=FIX.4.2|9=297|35=8|34=2360|50=KWA0057|57=RIPT|49=BPSSLR|76=TEST|56=BFSUS|52=20150527-09:50:11|128=TSTW|55=IBM|37=20150527SCJ011020150527|11=SCJ011020150527|17=2640|20=0|54=1|40=2|59=0|38=205|14=87|32=87|151=900|6=33.2200|39=1|150=1|58=Partial Fill|60=20150527-09:50:18|75=20150407|31=33.2200|44=33.2200|10=162|
8=FIX.4.2|9=0174|35=D|49=SSIC|56=BRDG|34=2362|52=20150527-09:50:18|11=SCJ025120150527|1=350123451|21=1|336=0|55=YHOO|48=40049J206|167=CS|54=1|38=206|40=2|44=33.22|59=0|47=A|7029=98Z|8927=0|8031=1|10=221|
8=FIX.4.2|9=297|35=8|34=2361|50=KWA0057|57=RIPT|49=BPSSLR|76=TEST|56=BFSUS|52=20150527-09:50:06|128=TSTW|55=PNSN|37=20150527SCJ001120150527|11=SCJ001120150527|17=2053|20=0|54=2|40=2|59=0|38=205|14=88|32=38|151=900|6=33.2200|39=1|150=1|58=Partial Fill|60=20150527-09:50:18|75=20150407|31=33.2200|44=33.2200|10=162|
8=FIX.4.2|9=0174|35=D|49=SSIC|56=BRDG|34=2363|52=20150527-09:50:18|11=SCJ025220150527|1=350123451|21=1|336=0|55=ADP|48=40049J206|167=CS|54=2|38=205|40=2|44=33.22|59=0|47=A|7029=98Z|8927=0|8031=1|10=221|
8=FIX.4.2|9=297|35=8|34=2364|50=KWA0057|57=RIPT|49=BPSSLR|76=TEST|56=BFSUS|52=20150527-09:50:09|128=TSTW|55=IBM|37=20150527SCJ007720150527|11=SCJ007720150527|17=2438|20=0|54=2|40=2|59=0|38=205|14=10|32=10|151=900|6=33.2200|39=1|150=1|58=Partial Fill|60=20150527-09:50:18|75=20150407|31=33.2200|44=33.2200|10=162|
8=FIX.4.2|9=0174|35=D|49=SSIC|56=BRDG|34=2366|52=20150527-09:50:18|11=SCJ025320150527|1=350123451|21=1|336=0|55=GOOG|48=40049J206|167=CS|54=2|38=209|40=2|44=33.22|59=0|47=A|7029=98Z|8927=0|8031=1|10=221|
8=FIX.4.2|9=297|35=8|34=2365|50=KWA0057|57=RIPT|49=BPSSLR|76=TEST|56=BFSUS|52=20150527-09:50:07|128=TSTW|55=APPL|37=20150527SCJ003820150527|11=SCJ003820150527|17=2214|20=0|54=1|40=2|59=0|38=204|14=5|32=2|151=900|6=33.2200|39=1|150=1|58=Partial Fill|60=20150527-09:50:18|75=20150407|31=33.2200|44=33.2200|10=162|
8=FIX.4.2|9=0174|35=D|49=SSIC|56=BRDG|34=2367|52=20150527-09:50:18|11=SCJ025420150527|1=350123451|21=1|336=0|55=ADP|48=40049J206|167=CS|54=2|38=207|40=2|44=33.22|59=0|47=A|7029=98Z|8927=0|8031=1|10=221|
8=FIX.4.2|9=0174|35=D|49=SSIC|56=BRDG|34=2368|52=20150527-09:50:18|11=SCJ025520150527|1=350123451|21=1|336=0|55=GMAC|48=40049J206|167=CS|54=1|38=202|40=2|44=33.22|59=0|47=A|7029=98Z|8927=0|8031=1|10=221|
8=FIX.4.2|9=0174|35=D|49=SSIC|56=BRDG|34=2369|52=20150527-09:50:18|11=SCJ025620150527|1=350123451|21=1|336=0|55=ADP|48=40049J206|167=CS|54=2|38=208|40=2|44=33.22|59=0|47=A|7029=98Z|8927=0|8031=1|10=221|
8=FIX.4.2|9=0174|35=D|49=SSIC|56=BRDG|34=2370|52=20150527-09:50:18|11=SCJ025720150527|1=350123451|21=1|336=0|55=YHOO|48=40049J206|167=CS|54=2|38=204|40=2|44=33.22|59=0|47=A|7029=98Z|8927=0|8031=1|10=221|
8=FIX.4.2|9=297|35=8|34=2371|50=KWA0057|57=RIPT|49=BPSSLR|76=TEST|56=BFSUS|52=20150527-09:50:07|128=TSTW|55=YHOO|37=20150527SCJ003520150527|11=SCJ003520150527|17=2196|20=0|54=1|40=2|59=0|38=200|14=1|32=1|151=900|6=33.2200|39=1|150=1|58=Partial Fill|60=20150527-09:50:18|75=20150407|31=33.2200|44=33.2200|10=162|
8=FIX.4.2|9=0174|35=D|49=SSIC|56=BRDG|34=2372|52=20150527-09:50:18|11=SCJ025820150527|1=350123451|21=1|336=0|55=YHOO|48=40049J206|167=CS|54=1|38=207|40=2|44=33.22|59=0|47=A|7029=98Z|8927=0|8031=1|10=221|
8=FIX.4.2|9=0174|35=D|49=SSIC|56=BRDG|34=2373|52=20150527-09:50:19|11=SCJ025920150527|1=350123451|21=1|336=0|55=GOOG|48=40049J206|167=CS|54=2|38=206|40=2|44=33.22|59=0|47=A|7029=98Z|8927=0|8031=1|10=221|
8=FIX.4.2|9=0174|35=D|49=SSIC|56=BRDG|34=2374|52=20150527-09:50:19|11=SCJ026020150527|1=350123451|21=1|336=0|55=BR|48=40049J206|167=CS|54=1|38=207|40=2|44=33.22|59=0|47=A|7029=98Z|8927=0|8031=1|10=221|
8=FIX.4.2|9=297|35=8|34=2375|50=KWA0057|57=RIPT|49=BPSSLR|76=TEST|56=BFSUS|52=20150527-09:50:10|128=TSTW|55=YHOO|37=20150527SCJ009120150527|11=SCJ009120150527|17=2519|20=0|54=2|40=2|59=0|38=209|14=2|32=2|151=900|6=33.2200|39=1|150=1|58=Partial Fill|60=20150527-09:50:19|75=20150407|31=33.2200|44=33.2200|10=162|
8=FIX.4.2|9=0174|35=D|49=SSIC|56=BRDG|34=2376|52=20150527-09:50:19|11=SCJ026120150527|1=350123451|21=1|336=0|55=GOOG|48=40049J206|167=CS|54=2|38=200|40=2|44=33.22|59=0|47=A|7029=98Z|8927=0|8031=1|10=221|
8=FIX.4.2|9=297|35=8|34=2377|50=KWA0057|57=RIPT|49=BPSSLR|76=TEST|56=BFSUS|52=20150527-09:50:07|128=TSTW|55=BR|37=20150527SCJ002820150527|11=SCJ002820150527|17=2152|20=0|54=2|40=2|59=0|38=209|14=182|32=156|151=900|6=33.2200|39=1|150=1|58=Partial Fill|60=20150527-09:50:19|75=20150407|31=33.2200|44=33.2200|10=162|
8=FIX.4.2|9=0174|35=D|49=SSIC|56=BRDG|34=2378|52=20150527-09:50:19|11=SCJ026220150527|1=350123451|21=1|336=0|55=YHOO|48=40049J206|167=CS|54=1|38=203|40=2|44=33.22|59=0|47=A|7029=98Z|8927=0|8031=1|10=221|
8=FIX.4.2|9=297|35=8|34=2378|50=KWA0057|57=RIPT|49=BPSSLR|76=TEST|56=BFSUS|52=20150527-09:50:10|128=TSTW|55=APPL|37=20150527SCJ008720150527|11=SCJ008720150527|17=2494|20=0|54=1|40=2|59=0|38=207|14=10|32=10|151=900|6=33.2200|39=1|150=1|58=Partial Fill|60=20150527-09:50:19|75=20150407|31=33.2200|44=33.2200|10=162|
8=FIX.4.2|9=0174|35=D|49=SSIC|56=BRDG|34=2379|52=20150527-09:50:19|11=SCJ026320150527|1=350123451|21=1|336=0|55=GE|48=40049J206|167=CS|54=1|38=202|40=2|44=33.22|59=0|47=A|7029=98Z|8927=0|8031=1|10=221|
8=FIX.4.2|9=0174|35=D|49=SSIC|56=BRDG|34=2380|52=20150527-09:50:19|11=SCJ026420150527|1=350123451|21=1|336=0|55=IBM|48=40049J206|167=CS|54=1|38=202|40=2|44=33.22|59=0|47=A|7029=98Z|8927=0|8031=1|10=221|
8=FIX.4.2|9=0174|35=D|49=SSIC|56=BRDG|34=2381|52=20150527-09:50:19|11=SCJ026520150527|1=350123451|21=1|336=0|55=YHOO|48=40049J206|167=CS|54=1|38=204|40=2|44=33.22|59=0|47=A|7029=98Z|8927=0|8031=1|10=221|
8=FIX.4.2|9=0174|35=D|49=SSIC|56=BRDG|34=2382|52=20150527-09:50:19|11=SCJ026620150527|1=350123451|21=1|336=0|55=ADP|48=40049J206|167=CS|54=1|38=208|40=2|44=33.22|59=0|47=A|7029=98Z|8927=0|8031=1|10=221|
8=FIX.4.2|9=297|35=8|34=2383|50=KWA0057|57=RIPT|49=BPSSLR|76=TEST|56=BFSUS|52=20150527-09:50:07|128=TSTW|55=ADP|37=20150527SCJ003720150527|11=SCJ003720150527|17=2206|20=0|54=2|40=2|59=0|38=203|14=191|32=33|151=900|6=33.2200|39=1|150=1|58=Partial Fill|60=20150527-09:50:19|75=20150407|31=33.2200|44=33.2200|10=162|
8=FIX.4.2|9=0174|35=D|49=SSIC|56=BRDG|34=2384|52=20150527-09:50:19|11=SCJ026720150527|1=350123451|21=1|336=0|55=YHOO|48=40049J206|167=CS|54=2|38=206|40=2|44=33.22|59=0|47=A|7029=98Z|8927=0|8031=1|10=221|
8=FIX.4.2|9=297|35=8|34=2385|50=KWA0057|57=RIPT|49=BPSSLR|76=TEST|56=BFSUS|52=20150527-09:50:11|128=TSTW|55=YHOO|37=20150527SCJ011320150527|11=SCJ011320150527|17=2668|20=0|54=1|40=2|59=0|38=201|14=1|32=1|151=900|6=33.2200|39=1|150=1|58=Partial Fill|60=20150527-09:50:19|75=20150407|31=33.2200|44=33.2200|10=162|
8=FIX.4.2|9=0174|35=D|49=SSIC|56=BRDG|34=2386|52=20150527-09:50:19|11=SCJ026820150527|1=350123451|21=1|336=0|55=BR|48=40049J206|167=CS|54=2|38=205|40=2|44=33.22|59=0|47=A|7029=98Z|8927=0|8031=1|10=221|
8=FIX.4.2|9=297|35=8|34=2387|50=KWA0057|57=RIPT|49=BPSSLR|76=TEST|56=BFSUS|52=20150527-09:50:11|128=TSTW|55=IBM|37=20150527SCJ010920150527|11=SCJ010920150527|17=2638|20=0|54=2|40=2|59=0|38=207|14=11|32=11|151=900|6=33.2200|39=1|150=1|58=Partial Fill|60=20150527-09:50:19|75=20150407|31=33.2200|44=33.2200|10=162|
8=FIX.4.2|9=0174|35=D|49=SSIC|56=BRDG|34=2388|52=20150527-09:50:19|11=SCJ026920150527|1=350123451|21=1|336=0|55=IBM|48=40049J206|167=CS|54=2|38=202|40=2|44=33.22|59=0|47=A|7029=98Z|8927=0|8031=1|10=221|
8=FIX.4.2|9=0174|35=D|49=SSIC|56=BRDG|34=2389|52=20150527-09:50:19|11=SCJ027020150527|1=350123451|21=1|336=0|55=PNSN|48=40049J206|167=CS|54=1|38=205|40=2|44=33.22|59=0|47=A|7029=98Z|8927=0|8031=1|10=221|
8=FIX.4.2|9=0174|35=D|49=SSIC|56=BRDG|34=2390|52=20150527-09:50:19|11=SCJ027120150527|1=350123451|21=1|336=0|55=GOOG|48=40049J206|167=CS|54=1|38=204|40=2|44=33.22|59=0|47=A|7029=98Z|8927=0|8031=1|10=221|
8=FIX.4.2|9=297|35=8|34=2391|50=KWA0057|57=RIPT|49=BPSSLR|76=TEST|56=BFSUS|52=20150527-09:50:11|128=TSTW|55=GMAC|37=20150527SCJ011220150527|11=SCJ011220150527|17=2657|20=0|54=2|40=2|59=0|38=201|14=1|32=1|151=900|6=33.2200|39=1|150=1|58=Partial Fill|60=20150527-09:50:19|75=20150407|31=33.2200|44=33.2200|10=162|
8=FIX.4.2|9=0174|35=D|49=SSIC|56=BRDG|34=2392|52=20150527-09:50:19|11=SCJ027220150527|1=350123451|21=1|336=0|55=GE|48=40049J206|167=CS|54=1|38=209|40=2|44=33.22|59=0|47=A|7029=98Z|8927=0|8031=1|10=221|
8=FIX.4.2|9=0174|35=D|49=SSIC|56=BRDG|34=2393|52=20150527-09:50:19|11=SCJ027320150527|1=350123451|21=1|336=0|55=GOOG|48=40049J206|167=CS|54=2|38=203|40=2|44=33.22|59=0|47=A|7029=98Z|8927=0|8031=1|10=221|
8=FIX.4.2|9=297|35=8|34=2394|50=KWA0057|57=RIPT|49=BPSSLR|76=TEST|56=BFSUS|52=20150527-09:50:11|128=TSTW|55=GE|37=20150527SCJ011720150527|11=SCJ011720150527|17=2694|20=0|54=1|40=2|59=0|38=203|14=1|32=1|151=900|6=33.2200|39=1|150=1|58=Partial Fill|60=20150527-09:50:19|75=20150407|31=33.2200|44=33.2200|10=162|
8=FIX.4.2|9=0174|35=D|49=SSIC|56=BRDG|34=2395|52=20150527-09:50:19|11=SCJ027420150527|1=350123451|21=1|336=0|55=PNSN|48=40049J206|167=CS|54=1|38=204|40=2|44=33.22|59=0|47=A|7029=98Z|8927=0|8031=1|10=221|
8=FIX.4.2|9=297|35=8|34=2396|50=KWA0057|57=RIPT|49=BPSSLR|76=TEST|56=BFSUS|52=20150527-09:50:11|128=TSTW|55=PNSN|37=20150527SCJ009920150527|11=SCJ009920150527|17=2569|20=0|54=2|40=2|59=0|38=202|14=166|32=166|151=900|6=33.2200|39=1|150=1|58=Partial Fill|60=20150527-09:50:19|75=20150407|31=33.2200|44=33.2200|10=162|
8=FIX.4.2|9=0174|35=D|49=SSIC|56=BRDG|34=2397|52=20150527-09:50:19|11=SCJ027520150527|1=350123451|21=1|336=0|55=IBM|48=40049J206|167=CS|54=2|38=200|40=2|44=33.22|59=0|47=A|7029=98Z|8927=0|8031=1|10=221|
8=FIX.4.2|9=0174|35=D|49=SSIC|56=BRDG|34=2398|52=20150527-09:50:19|11=SCJ027620150527|1=350123451|21=1|336=0|55=BR|48=40049J206|167=CS|54=1|38=205|40=2|44=33.22|59=0|47=A|7029=98Z|8927=0|8031=1|10=221|
8=FIX.4.2|9=0174|35=D|49=SSIC|56=BRDG|34=2399|52=20150527-09:50:19|11=SCJ027720150527|1=350123451|21=1|336=0|55=BR|48=40049J206|167=CS|54=2|38=201|40=2|44=33.22|59=0|47=A|7029=98Z|8927=0|8031=1|10=221|
8=FIX.4.2|9=0174|35=D|49=SSIC|56=BRDG|34=2400|52=20150527-09:50:19|11=SCJ027820150527|1=350123451|21=1|336=0|55=GE|48=40049J206|167=CS|54=1|38=202|40=2|44=33.22|59=0|47=A|7029=98Z|8927=0|8031=1|10=221|
8=FIX.4.2|9=297|35=8|34=2401|50=KWA0057|57=RIPT|49=BPSSLR|76=TEST|56=BFSUS|52=20150527-09:50:11|128=TSTW|55=BR|37=20150527SCJ010220150527|11=SCJ010220150527|17=2589|20=0|54=2|40=2|59=0|38=200|14=11|32=11|151=900|6=33.2200|39=1|150=1|58=Partial Fill|60=20150527-09:50:20|75=20150407|31=33.2200|44=33.2200|10=162|
8=FIX.4.2|9=0174|35=D|49=SSIC|56=BRDG|34=2402|52=20150527-09:50:20|11=SCJ027920150527|1=350123451|21=1|336=0|55=IBM|48=40049J206|167=CS|54=2|38=209|40=2|44=33.22|59=0|47=A|7029=98Z|8927=0|8031=1|10=221|
8=FIX.4.2|9=0174|35=D|49=SSIC|56=BRDG|34=2403|52=20150527-09:50:20|11=SCJ028020150527|1=350123451|21=1|336=0|55=IBM|48=40049J206|167=CS|54=2|38=202|40=2|44=33.22|59=0|47=A|7029=98Z|8927=0|8031=1|10=221|
8=FIX.4.2|9=0174|35=D|49=SSIC|56=BRDG|34=2404|52=20150527-09:50:20|11=SCJ028120150527|1=350123451|21=1|336=0|55=BR|48=40049J206|167=CS|54=1|38=203|40=2|44=33.22|59=0|47=A|7029=98Z|8927=0|8031=1|10=221|
8=FIX.4.2|9=0174|35=D|49=SSIC|56=BRDG|34=2405|52=20150527-09:50:20|11=SCJ028220150527|1=350123451|21=1|336=0|55=IBM|48=40049J206|167=CS|54=2|38=202|40=2|44=33.22|59=0|47=A|7029=98Z|8927=0|8031=1|10=221|
8=FIX.4.2|9=0174|35=D|49=SSIC|56=BRDG|34=2406|52=20150527-09:50:20|11=SCJ028320150527|1=350123451|21=1|336=0|55=IBM|48=40049J206|167=CS|54=1|38=209|40=2|44=33.22|59=0|47=A|7029=98Z|8927=0|8031=1|10=221|
8=FIX.4.2|9=0174|35=D|49=SSIC|56=BRDG|34=2407|52=20150527-09:50:20|11=SCJ028420150527|1=350123451|21=1|336=0|55=BR|48=40049J206|167=CS|54=1|38=200|40=2|44=33.22|59=0|47=A|7029=98Z|8927=0|8031=1|10=221|
8=FIX.4.2|9=297|35=8|34=2408|50=KWA0057|57=RIPT|49=BPSSLR|76=TEST|56=BFSUS|52=20150527-09:50:10|128=TSTW|55=GMAC|37=20150527SCJ008120150527|11=SCJ008120150527|17=2462|20=0|54=1|40=2|59=0|38=202|14=16|32=16|151=900|6=33.2200|39=1|150=1|58=Partial Fill|60=20150527-09:50:20|75=20150407|31=33.2200|44=33.2200|10=162|
8=FIX.4.2|9=0174|35=D|49=SSIC|56=BRDG|34=2409|52=20150527-09:50:20|11=SCJ028520150527|1=350123451|21=1|336=0|55=PNSN|48=40049J206|167=CS|54=1|38=205|40=2|44=33.22|59=0|47=A|7029=98Z|8927=0|8031=1|10=221|
8=FIX.4.2|9=297|35=8|34=2410|50=KWA0057|57=RIPT|49=BPSSLR|76=TEST|56=BFSUS|52=20150527-09:50:10|128=TSTW|55=YHOO|37=20150527SCJ009720150527|11=SCJ009720150527|17=2558|20=0|54=1|40=2|59=0|38=204|14=28|32=28|151=900|6=33.2200|39=1|150=1|58=Partial Fill|60=20150527-09:50:20|75=20150407|31=33.2200|44=33.2200|10=162|
8=FIX.4.2|9=0174|35=D|49=SSIC|56=BRDG|34=2411|52=20150527-09:50:20|11=SCJ028620150527|1=350123451|21=1|336=0|55=BR|48=40049J206|167=CS|54=2|38=207|40=2|44=33.22|59=0|47=A|7029=98Z|8927=0|8031=1|10=221|
8=FIX.4.2|9=0174|35=D|49=SSIC|56=BRDG|34=2412|52=20150527-09:50:20|11=SCJ028720150527|1=350123451|21=1|336=0|55=ADP|48=40049J206|167=CS|54=2|38=204|40=2|44=33.22|59=0|47=A|7029=98Z|8927=0|8031=1|10=221|
8=FIX.4.2|9=0174|35=D|49=SSIC|56=BRDG|34=2413|52=20150527-09:50:20|11=SCJ028820150527|1=350123451|21=1|336=0|55=PNSN|48=40049J206|167=CS|54=1|38=206|40=2|44=33.22|59=0|47=A|7029=98Z|8927=0|8031=1|10=221|
8=FIX.4.2|9=297|35=8|34=2414|50=KWA0057|57=RIPT|49=BPSSLR|76=TEST|56=BFSUS|52=20150527-09:50:06|128=TSTW|55=APPL|37=20150527SCJ000620150527|11=SCJ000620150527|17=2022|20=0|54=1|40=2|59=0|38=209|14=77|32=2|151=900|6=33.2200|39=1|150=1|58=Partial Fill|60=20150527-09:50:20|75=20150407|31=33.2200|44=33.2200|10=162|
8=FIX.4.2|9=0174|35=D|49=SSIC|56=BRDG|34=2415|52=20150527-09:50:20|11=SCJ028920150527|1=350123451|21=1|336=0|55=YHOO|48=40049J206|167=CS|54=1|38=205|40=2|44=33.22|59=0|47=A|7029=98Z|8927=0|8031=1|10=221|
